:020000040800F2
:100000000000012021640408BD6404088D9A0108E1
:10001000E5980108BD640408BD6404080000000000
:10002000000000000000000000000000BD640408A3
:10003000BD64040800000000BD6404089D80010840
:10004000BD640408BD640408BD640408BD640408FC
:10005000BD640408BD6404083DA1000845A1000872
:100060004DA1000855A100085DA100084D9F0008A2
:10007000619F0008759F0008899F00089D9F0008E8
:10008000B19F0008C59F0008BD640408BD64040852
:10009000BD640408BD640408BD64040865A10008CB
:1000A0004DCA000839C900085DCA000829C90008FE
:1000B00061C9000871C9000881C90008E19A0008F7
:1000C000D59A0008159B0008099B0008BD64040828
:1000D000BD640408E97F0108F57F0108018001087B
:1000E0006DA10008BD640408BD6404086DCA000861
:1000F00025CA0008BD64040815CA0008D99F000875
:10010000BD640408BD64040891C90008BD64040806
:100110000D80010819800108A1C9000865E20308E3
:10012000ED9F000801A0000815A0000829A0000804
:100130003DA00008000000000000000000000000DA
:10014000000000000000000000000000E9D70308E4
:1001500051A0000865A0000879A0000825800108CA
:10016000499B00083D9B0008BD640408BD64040869
:10017000BD640408BD640408000000000000000025
:10018000BD640408BD640408BD640408BD640408BB
:10019000BD640408BD64040800000000BD640408D8
:1001A000000000000000000000000000BD64040822
:1001B000BD640408BD6404080000000000000000E5
:1001C000000000000000000000000000000000002F
:1001D000000000000000000000000000BD640408F2
:0801E0002C5F04000100000087
:1001E800FA010100040000006C2C0120D02B012032
:1001F8000000000095DD0008CC2B0120053001002F
:1002080008000000F4260120D82B0120000000007F
:1002180008A30508D42B01201302010004000000E4
:1002280044240120E42B01200000000010A305084D
:10023800E02B01201F0208001000000024200120EC
:10024800EC2B012000000000B1DE0008E82B0120A3
:100258000610010026000000FC1C0120002C0120D3
:1002680000000000B9DD0008FC2B01201602150073
:100278003F000000DC1A01202C2C012000000000A7
:10028800F9DE0008282C01200E02010002000000FF
:100298002C5F0120886301200000000014A30508DA
:1002A800846301202F2001002200000090630120B8
:1002B800A45B01200000000016A305088C63012040
:1002C8002C00040010000000685B0120AC5E0120D7
:1002D8000000000031A30208B463012025201E009D
:1002E8002C010000BC590120805D012000000000A5
:1002F80000000000B86301202B0012002400000059
:1003080098590120BC5E0120000000004DA302089E
:10031800BC630120162001000600000040510120A6
:10032800C46301200000000038A30508C063012051
:10033800270001000400000034510120D06301208F
:10034800000000003EA30508CC6301200C600400F7
:1003580078000000504B0120D86301200000000005
:10036800F5D50108D4630120292014007800000085
:10037800F44F0120085D012000000000000000008B
:1003880050640120012001000C000000E84F01200A
:10039800586401200000000042A3050854640120AD
:1003A8002320010010000000D84F012068640120BC
:1003B800000000001DA40208646401200B30010045
:1003C8001A000000A04F01207C64012000000000FA
:1003D8004EA30508786401200E7004007002000026
:1003E800C84B01209C6401200000000059510208FC
:1003F800986401201E2001000B000000204F0120FE
:10040800106701200000000068A305080C670120A0
:100418000D10010070000000AC4E0120CC5B0120E3
:1004280000000000816201081C67012018400100DB
:1004380038000000744E0120D05C0120000000004C
:10044800CDE50008206701201B0201001000000014
:100458003867012028670120000000009DDE0008A1
:1004680024670120280204000400000050670120CE
:100478004C670120000000005DDE0008486701208D
:1004880027020400040000005C670120586701206F
:100498000000000051DE0008546701201A02010024
:1004A8003C000000F05E01206467012000000000AD
:1004B8006DE5000860670120040008008000000066
:1004C800E85A0120445C0120000000000000000000
:1004D800A06701201C0202001C000000BC4F012084
:1004E800A8670120000000007DE40008A46701203F
:1004F8002630010008000000A05F0120C867012025
:10050800000000009D820308C4670120081204004F
:10051800140000008C5F0120D46701200000000057
:1005280021DD0008D06701200A90010024000000A6
:10053800384E0120EC6701200000000031A40208B9
:10054800E8670120010201000A000000E0620120C2
:10055800146801200000000085DD000810680120F3
:100568000C02010004000000A85F0120246801209B
:1005780000000000A1DD000820680120FD1701002F
:100588009A000000EA6201202C68012000000000A7
:100598006D170308286801201310010004000000EB
:1005A800984F0120C85B01200000000074A30508D3
:1005B800C86801200202010003000000DC6201207B
:1005C800D06801200000000000000000CC68012075
:1005D800F5C101007400000094500120D868012082
:1005E80000000000692C0308D4680120F6210100EE
:1005F8000C00000088500120C45C012000000000AD
:1006080078A305084C6901201212010004000000BB
:10061800206A012054690120000000008DDE0008D6
:10062800506901201102010008000000246A01201D
:100638005C6901200000000069DE0008586901209B
:10064800F8310100060000005C4E012068690120B5
:100658000000000084A3050864690120021001005D
:100668000C000000F85F0120746901200000000000
:100678008CA3050870690120FE0101001400000028
:100688006C5001208469012000000000F9DC00089A
:10069800806901200612040018000000E05F0120B4
:1006A8009C69012000000000F9E300089869012016
:1006B800F70101000600000080500120B869012000
:1006C8000000000098A30508B46901201A00010081
:1006D8000E000000745F0120C469012000000000C2
:1006E8009EA30508C0690120140001000500000050
:1006F8006C4E01203C5C012000000000ACA3050802
:10070800D4690120FD010100240000004E5F012092
:10071800DC690120000000006B590108D86901203C
:100728001D02020006000000485F0120046A012043
:100738000000000000000000006A0120F90101002B
:10074800040000002C6A0120106A0120000000004B
:10075800215901080C6A0120123001001000000024
:100768000C4B0120E05E012000000000B2A3050848
:10077800146A01201F50010024000000407101206C
:100788007876012000000000C4A3050874760120D3
:100798003840010006000000446B0120A0760120CB
:1007A80000000000E8A305089C76012037400100FE
:1007B8002800000034720120AC76012000000000FF
:1007C800EEA30508A8760120101001000200000021
:1007D80064740120D87601200000000016A40508E2
:1007E800D47601200502010004000000D47801201D
:1007F800047E01200000000018A40508007E0120E6
:100808002C02010004000000147901202C7E012034
:10081800000000001CA40508287E01202D0201000C
:1008280001000000E0780120347E01200000000073
:1008380000000000307E01200101010004000000DA
:10084800307801203C7E01200000000000000000FC
:10085800387E01200001010004000000E476012038
:10086800447E01200000000020A40508407E0120ED
:1008780002010100030000002C7801204C7E0120B9
:100888000000000085D20108487E012020520100A6
:100898000800000000770120547E012000000000BD
:1008A80024A40508507E01202A1201000800000037
:1008B800F8760120607E0120000000002CA40508C5
:1008C8005C7E01201900010005000000F07601207F
:1008D8006C7E01200000000034A40508687E012019
:1008E800290201004000000034780120787E0120B0
:1008F800000000003AA40508747E0120233201009C
:10090800140000006C7F01202881012000000000F5
:100918007CA4050824810120001201000A000000BF
:10092800D48F012030970120000000000000000053
:040938002C970120D7
:10800000084A0346D0F8E4005268D3F8F010121A78
:1080100000209142B8BFC3F8F020012283F81C2150
:10802000704700BF001000E01B4B1C4A03F5727C38
:10803000016803E063452BD053F82C2F9142F9D10E
:1080400070B593F804E0427996450AD0634505D0AF
:1080500053F82C2F9142F4D06345F9D14FF0FF3003
:1080600070BD9E46C4680022DEF80C50A54208D0C0
:1080700001320EF10C0E032AE8D0DEF80C50A542B6
:10808000F6D1DEF810500669B542F1D150B270BD9C
:108090004FF0FF30704700BF187C0408000001401B
:1080A0004368426D30B49A61EFF31182502383F339
:1080B00012884168D2B2856C0B68046D23EA05030F
:1080C00023430B6082F31188436981681A68096849
:1080D00022F00102D0E908541A60826A1D605C61D6
:1080E0005A60D0E90B429C60DA600023B0F86C2043
:1080F00030BCCA620377704730B5FAB18E464FEA9A
:10810000014C034600F1C005002419680C3353F8F4
:10811000042C43F8084C41EA0C0142EA0E02AB423F
:1081200043F80C1C43F8042CEFD1D0F8C03043EADC
:108130000E03C0E93144C0F8C03030BD4FEA014EF3
:108140008C46DEE783695969B3F810C00A6830B419
:108150009C6822F0010224680A60E26822EA0C02AC
:10816000E260027D04681F2A06D9203A082065686B
:108170009040284242D0FEE70820256890402842DF
:10818000F9D1202000FA02F2A260254A1278002AD2
:1081900032D01A7F012A36D0D3F800210132C3F839
:1081A0000021EFF31181502282F312885868C9B27E
:1081B0009D6C0268DC6C22EA05022243026081F3B6
:1081C00011885A699968D3E90D40096814605061B3
:1081D000D3E90F40546090605C6CB3F8B400D46095
:1081E0000124C8621068204310601A8A1C7783F843
:1081F000FD40CB681343CB6030BC7047202000FAB1
:1082000002F2E260C1E70022D3F8040183F8FD2006
:1082100001300A68C3F8040122F001020A60EBE7AA
:10822000C801002010B40C4C6368002B11DD002045
:1082300004F1080C0146DCF8AC3003F1C0025960CF
:108240000C339342FBD1013063680CF5867C83428A
:10825000F1DC5DF8044B7047C8010020704700BF97
:10826000024B03EB401090F855047047C801002002
:10827000704700BF0B4890F86C1589B101EB4101C4
:10828000002300F27450490010B41C4650F823201B
:10829000063302B114608B42F8D15DF8044B70478D
:1082A000704700BFC80100200B4890F86C1589B1D9
:1082B00001EB4101002300F27450490010B41C4648
:1082C00050F82320063302B114609942F8D15DF8CA
:1082D000044B7047704700BFC80100200120704761
:1082E000034B00EB400003EBC00090F8850570479E
:1082F000C8010020204890F86C35002B3AD00022AD
:1083000000F274534FF02C0C2DE9F0434FF0500E57
:108310001A4E1B4D144607E053F8181B01320C602F
:1083200090F86C15914223DD197C0029F4D05F6828
:108330004FF0FE08B90AA1F580115229294498BFCF
:1083400091F8F483EFF311818EF31288D7F824901B
:108350000CFB0868C9B209F10109C8F82890D7F8E0
:10836000148048F00108C7F8148081F31188D3E71E
:10837000BDE8F083704700BFC80100204815012008
:10838000187C040807EE900AB8EE670A704700BF31
:10839000BCEEC00A10EE103A98B270472DE9F041D9
:1083A0000022794B846982B0D3F89462019208224A
:1083B00004F19C07D4E93D839A40D8F80050154257
:1083C00005D0D4F89C100868400700F1B080012265
:1083D0009A40154205D0D4F89C104969080600F16E
:1083E0009D8004229A40154205D0D4F89C1009685B
:1083F000890700F18A8010229A40154204D0D4F8EF
:108400009C10086800076AD420229A40154218D0B0
:10841000D4F89C100868C00613D5C8F8082094F852
:10842000D120052A39D00B6813F4802F0B6800F097
:108430009280190340F19D80D4F8D8300BB13846B2
:108440009847D4F8F030002B46D0D4F8F030DA0753
:108450001BD54E4BD4F89C20A3FB0636052384F88D
:10846000D130B60A136823F00103136002E01368E9
:10847000DB0704D5019B01339E420193F7D2002212
:10848000012384F8D02084F8D130D4F8E8301BB32D
:10849000384602B0BDE8F04118470A6822F01602DB
:1084A0000A604A6922F080024A61D4F8DC20002A7E
:1084B00065D00A6822F008020A603F22002102FA11
:1084C00003F30122C8F80830D4F8EC3084F8D01057
:1084D00084F8D120002BDBD102B0BDE8F081C8F8D0
:1084E00008200A6812F4802F0A682DD1D20503D41F
:1084F0000A6822F008020A60D4F8DC20002A83D03F
:1085000038469047D4F8F8307EE7C8F80820D4F809
:10851000F02042F00402C4F8F0206CE7C8F808200C
:10852000D4F8F02042F00202C4F8F02059E70868BD
:1085300020F004000860C8F80820D4F8F02042F0C9
:108540000102C4F8F02042E71103D5D5D4F8E420A5
:10855000002AD5D158E713F480737FF46DAF0A6811
:1085600022F010020A60012284F8D03084F8D12071
:1085700062E7D4F8E030002B7FF461AF61E7D4F814
:10858000E420002A95D198E748150120B5814E1BBB
:108590000346012200205A77704700BF08B5D0E992
:1085A0000B2183690B4483610AB108469047002080
:1085B00008BD00BF436A02461B681B6A5B685B78A4
:1085C00013F0010008BF5077704700BFC26281619D
:1085D000704700BF704700BF043070470C4B93F8E2
:1085E0009C22D3F8981202440844D2B2C3F89802ED
:1085F00083F89C2293F89C22120605D593F89C22BE
:1086000082F0800283F89C22024B01221A7070478C
:1086100048150120000001202DE9F84F154FD7F82B
:10862000A052ED0A20D00026DFF84CA007F52979EA
:10863000B046AC19D7F8A412102352466410D1F8F2
:1086400028B04846C7F8D082E102D8470F280BDD92
:10865000094B03F1100253F8041B013107D1934277
:10866000F9D12546B542E4DCE802BDE8F88F661C86
:10867000F8E700BF4815012000000020184BD3F890
:10868000D812D3F8DC228A1A322A15D8D3F8F0226D
:108690008A4200D37047D3F8E022E2B11068323149
:1086A000928810B44469C3F8F01222425DF8044B7A
:1086B00018BF120482617047D3F8E0223AB193F8F0
:1086C000EC021168C007928848BF12048A61002238
:1086D000C3F8F02270473231C3F8F012704700BF80
:1086E00048150120064AD2F8E0323BB192F8EC126C
:1086F0001A68C9079B8848BF1B0493610020704714
:1087000048150120044B4FF4007C0020D3F80033BF
:10871000A2F800C00B607047481501200020704788
:10872000012070470120704700207047134BD0F89C
:10873000D8105B68D0F8E02010B50446581A824281
:1087400000DC22B9D4F8E4200A44C4F8DC2094F810
:10875000D020C4F8D830012A05D0D4F8D430013361
:10876000C4F8D43010BD04F1E801201D0EF020F94A
:10877000D4F8D4300133C4F8D43010BD001000E078
:10878000CB070AD490F82830012B08D0C368B3F186
:10879000807F03D901230377704770477047204AD1
:1087A000D2F89432D2F830139A08B1EB930F4FF00D
:1087B000020310B5446A8CB006D252085B009142A5
:1087C0009BB201D2FF2BF8D9C268A380B2F1807F9F
:1087D00024D90122002301A94FF0B70C02772046CB
:1087E00004928DF814208DF828200B938DF804C086
:1087F000CDE9021302A9CDE90633CDE908330EF025
:10880000D7F82268536A002B18BF9C4214BF01237B
:108810000023002BFDD1136A002BFCD10CB010BD3E
:108820004815012030B590F828308BB00446012B54
:1088300005D0407F48B1002363770BB030BD456A57
:108840002A68137B6BBB637F13B901200BB030BD6B
:108850001B490220002301220290081F8DF80C20E2
:108860008DF820200993CDE9001069462846CDE90E
:108870000433CDE906330EF09BF82A68536A002BC7
:1088800018BF9D4214BF01230023002BFDD1136AA2
:10889000002BFCD10B4B5B7C03F0010383F0010048
:1088A000CAE7506A002818BF854214BF0120002083
:1088B00003D1136A002BC6D0BFE70020BDE700BF7D
:1088C00014000020000000202DE9F041274E8AB05E
:1088D000044690F82820371FA6F11405437F012A8B
:1088E00006D00BB10023637701200AB0BDE8F08108
:1088F000D4F82480D8F80020117B59BB002BF3D08A
:108900000023694640460993CDE90433CDE9063397
:1089100001238DF80C308DF820300223CDE900675B
:1089200002930EF045F8D8F80020536A984518BF16
:10893000002B14BF01230023002BFDD1136A002B51
:10894000FCD16B7C03F001036377002BCCD094F84F
:108950002820C4E7516A884501D00029CAD1126A8B
:10896000002AC7D1002BBFD0CAE700BF14000020E7
:108970002C4A012330B5044695B0101D8DF80C30FB
:1089800007938DF820308DF834308DF8483002F19F
:108990000803656A0593CDE900200220083A029099
:1089A00021480A9200220490207F069290420B9266
:1089B000139214BF05230423CDE90E22CDE9102222
:1089C0002A680C93536A002B18BF9D42174D14BFA1
:1089D000012300230995002BFDD1136A002BFCD144
:1089E000E8B113480A0E00F11A0342760A0A997098
:1089F000080C69465A701870606A0DF0D9FF616AF8
:108A00000A68536A994218BF002B14BF0123002340
:108A1000002BFDD1136A002BFCD115B030BD054BE6
:108A2000E4E700BF20000020B5850008918500081C
:108A3000000000201900002010B594B00446502218
:108A40000B4968463EF004FF6946606A0DF0B0FFCE
:108A5000616A0A68536A002B18BF994214BF012348
:108A60000023002BFDD1136A002BFCD114B010BDE4
:108A700060800408F8B50646406A05686C6A002CF8
:108A800018BFA04214BF01240024002CFDD12C6A81
:108A9000002CFCD1307F002839D0B06905272A4D41
:108AA0004FEA106C294C2E3505F801CC6763A8708D
:108AB0004FEA104C000A012B85F800C068704FF097
:108AC00000000D6825641568A5643563A06524D091
:108AD000022B1BD15368012220651D444968E365C0
:108AE0001B4B84F84C006165356384F86020636635
:108AF000184B717F03F11402706A002914BF1946E4
:108B000011460DF055FFF36A73B1306BF8BD0420C8
:108B10000E4C114D6063B069C9E70D4A84F84C30C2
:108B20006065E0652265E3E7716A0A68536A002BB5
:108B300018BF994214BF01230023002BFDD1136AF3
:108B4000002BFCD1E1E700BF000000200000012065
:108B50009D850008040001202D00002000B583B091
:108B60008161019201A9049A00930123C2626A46BD
:108B7000FFF780FF03B05DF804FB00BFF0B51D46B2
:108B8000436A95B007461E68746A002C18BFA3425A
:108B900014BF01240024002CFDD1336A002BFCD12A
:108BA0003F4B02203F4E029003F13C00049603F13C
:108BB0003406009003F140000596019001203E7FAD
:108BC00006948DF80C00002E57D00B920A0E363307
:108BD0008DF8204003F8012C05220C958DF8340007
:108BE0008DF8480013940792CDE90944CDE90E446D
:108BF000CDE910440A0C99702B4C090A1A7059706F
:108C0000D4F89422D4F830339108786AB3EB920FF9
:108C10004FF0020206D2490852008B4292B201D2B2
:108C2000FF2AF8D97B7F82802BBB05A90DF0C0FEFF
:108C3000786A01684A6A824218BF002A14BF01227A
:108C40000022002AFDD10B6A002BFCD1D4F894221B
:108C5000D4F834339108B3EB920F4FF0020206D2EE
:108C6000490852008B4292B201D2FF2AF8D9828081
:108C7000284615B0F0BD6946D8E70B92042235337B
:108C80008DF820400C958DF834008DF84800139431
:108C90000792CDE90944CDE90E44CDE91044A9E796
:108CA00000000020B5850008481501200C4AF8B5E1
:108CB000136855692B4003EA000555617DB1094FE2
:108CC0000126B5FA85F4C4F11F0407EB840306FA04
:108CD00004F4D3F8380303689847A543F1D1F8BDED
:108CE000003C0140481501200269C3682DE9F047A6
:108CF00012EA03092AD005460E464FF000474FF00E
:108D00000008B9FA89F327FA03F21B3BD24309EAB8
:108D100002092A61042B16D8DFE803F0352C231A48
:108D20000300B36A002B37D003F1FF3AC6F828805E
:108D30001FFA8AFA746A34B123682046514698476C
:108D40006468002CF8D1B9F1000FDAD1BDE8F087E2
:108D50007068696B036889B29847B9F1000FD0D188
:108D6000F4E7B068A96B036889B29847B9F1000FBE
:108D7000C7D1EBE7F068E96B036889B29847B9F1AE
:108D8000000FBED1E2E73069296C036889B29847C9
:108D9000B9F1000FB5D1D9E7E96A1FFA81FAC9E73D
:108DA0008269F0B592F8DC308BB00546012B32D0E9
:108DB000023B012B3AD892F84C31EC46D2F89C2079
:108DC00063F07F031B4C13708669D6F8A0305F1CDC
:108DD0000FCCACE80F00D6F89C30CDE900370FCCB3
:108DE000ACE80F0094E803008CE80300694606F144
:108DF00010000DF0DDFDAA69104650F8101F4B6AF7
:108E0000834218BF002B14BF01230023002BFDD188
:108E10000B6A002BFCD1D2F8A0305A8852BAEA81F2
:108E20009A8852BA2A82DB885BBA6B8201200BB027
:108E3000F0BD00BFB0800408F0B590F8DC308BB016
:108E40000446D0F8A050012B56D015D8D0F89C304D
:108E50004FF0FF3205211A605A609A60DA60D0F84C
:108E6000E030C0F8F010B3F57A7F5FD8032380F8C4
:108E7000DC3001200BB0F0BD023B012BF9D890F89B
:108E80004D3100F1100ED0F89C20EC4663F07F03CA
:108E90003D4E1370D0F8A0305F1C0FCEACE80F0031
:108EA000D4F89C30CDE900370FCEACE80F0096E83F
:108EB000030076468CE80300694670460DF078FDA5
:108EC0002269536A9E4218BF002B14BF012300235E
:108ED000002BFDD1136A002BFCD16B8801205BBAFB
:108EE000A4F8D030AB885BBAA4F8D230EB885BBA78
:108EF000A4F8D4300BB0F0BD90F84C2190F84D316F
:108F00009B1A5B100133DBB235F8132005EB4305E8
:108F100053BAA0F8D0306B885BBAA0F8D230AB88D7
:108F20005BBAA0F8D43001200BB0F0BD03691A7B06
:108F30002AB35B691BB390F8983003B390F84C31B7
:108F40000122D0F89C0063F07F03C4F8A4400F49CD
:108F5000037094F84D3194F84C0184F800211B1AE9
:108F600084F8DC20D4F8A0200733C4F804110132BF
:108F7000D4F89C10C4E93E23C4F8F41079E7022326
:108F800084F8DC3075E700BFB08004080180000879
:108F90002DE9F041304F07EB401898F854340BB9E5
:108FA000BDE8F08100EB80030E460021044607EB8C
:108FB0004313450193F8362683F8361688F83A2489
:108FC0003EF022FEB8BB3D442448A5F8386400EBCF
:108FD00044103EF0DDFD3B78D5F85024A3B1D5F820
:108FE0003C140124D2F8AC308C4003F1C0014200A3
:108FF00010F4004F90B202D15A6822435A600C33E9
:109000009942F4D1BDE8F081D5F83C140124D2F89E
:10901000AC3001F1100203F1C0019440420010F4A1
:10902000004F90B202D15A6822435A600C339942E1
:10903000F4D1BDE8F0810A4B93F8EC2302EB420235
:1090400003EBC203234493F89963002EBBD00123A2
:1090500088F83A34B7E700BFC801002000060020B6
:10906000481501202DE9F84F374D2B7813B9012011
:10907000BDE8F88F354F05F5876A05F634360024CC
:10908000D7F8D8B24FF6FE794FF6FF7815E0B0F575
:10909000606F4AD0B081B0EB08012D4B4FF05C00FF
:1090A0005A4618BF012100FB04300DF097FA013435
:1090B0000AF1200A1436082C31D0D5F81C2FA24210
:1090C0002DDDDAF81800DAF80420D0E93D013EF091
:1090D00093FD484597F8792314D0532A04D1B7F863
:1090E0007C230132A7F87C23D5F83C2B404502F1C4
:1090F0000102C5F83C2BCAD1D5F8382B0132C5F88E
:10910000382BC8E7532AD2D1B7F87E2301340AF1AD
:10911000200A14360132082CA7F87E23CDD1012372
:10912000012085F83A3CBDE8F88F97F8EC2302EB74
:10913000420207EBC202224492F899230D2AA9D1D8
:109140008022B277A7E700BFC801002048150120A0
:10915000040E00202DE9F8430EF0F4FF2F4E4FF0DF
:10916000000C0746DFF8BC802D4C716800294ADDF1
:1091700000234FF486701D4600FB0362013392F812
:109180000521994245EA0205F6D145EA0C0C5FFA41
:109190008CF9D8F80430C3F308038BBBEFF31183C9
:1091A00073BB4FF0E02CD4F8D832DCF81810D4F8A8
:1091B000D8229342F7D1D4F8F0239142F3D8D4F8CF
:1091C000F4C34FF47A7202FB0CF0401AB0FBFCF0CF
:1091D00002FB0300C31BB3F5FA6FCCBF4FF0000CCA
:1091E00005F0010CBCF1000FBFD1B9F1000F04D0A4
:1091F0000B4B93F87923532A08D04846BDE8F883EF
:109200000EF072FFE6E7E1460025C2E7B3F88023DF
:1092100048460132A3F88023BDE8F883C801002046
:109220004815012000ED00E010B504463DF04CFE6D
:109230000146204689B2BDE81040A9E638B50B4D7D
:1092400000EB400005F27453C40003EBC0032C4450
:1092500093ED027AD3ED037AE7EE007AB0EE670A77
:109260003DF032FED4F87435186038BDC8010020D6
:109270002DE9F0413EF0A4FC80B31B4F7D68002D2A
:1092800012DD3846002410F8086BA046013416B1F0
:10929000037F012B1DD04269AC4200F58670136834
:1092A00043F001031360F1D10EF04CFFD7F8204FCB
:1092B000002C0CDD0D4B03EBC4041968083333F8A4
:1092C000042CC8689C4242EA0002CA60F5D1BDE89D
:1092D000F08180F8FC80FEF7E3FEDCE738F0A2F8CE
:1092E0000028CAD1BDE8F081C8010020EC100020A0
:1092F0002DE9F843DDF820800F4616460021202294
:1093000004461D463EF0CCFAB8F1000F0CD0D8F858
:109310000030B8F80A20E3811B0C2382D8F804300F
:109320006282E3821B0C238338463CF0DFF9F306AC
:1093300019D4431EB8B107EB000C01E0013B12D376
:109340001CF801EDBEF12E0FF8D1C01A03F101098E
:10935000421EB944032AA8BF0322082BA8BF082332
:1093600090461A4606E008280246B9464FF0000823
:10937000A8BF08224FF0203339462046236063609F
:109380003EF066FA04F10803174842464946208138
:10939000A07218463EF05CFA04F1FF3C0346E21D61
:1093A0001CF8011FA1F1610E2039BEF1190F98BF01
:1093B0008CF800106245F3D1184604F10B0110F847
:1093C000013BA3F16102203B192A98BF00F8013C40
:1093D0008842F4D1182365832D0CE6722373099B10
:1093E000A582E361BDE8F883202020002DE9F04F3D
:1093F000DFF88C9487B0D9F8D802C9F8DC02002BCA
:1094000000F0DA801344154601F1200601F5FE77DD
:10941000DFF870A403931FE0002D63D0D9F80C236C
:10942000AA4200F0CD80D9F80823AA4200F00281B8
:10943000D9E9C421AA424CD8A94200F2CF81691AC5
:10944000184637F0A5FC0135039B06F5007607F5B5
:1094500000779D4200F0B080D9F81843A6F12003B0
:10946000AC42D9D82C1BD9F82883E208D8F83010A0
:1094700004F0070402328A4203D3D8F838108A4233
:109480000DD9414610460593049237F051FC8046B1
:10949000DDE90423002800F0C181C9F8280398F809
:1094A0000410002940F03F81D8F828B0BBF1000F2C
:1094B00000F0AD811846D8F830304FF40071D21A60
:1094C000D8F80C3004EBC20203EB42224346D847E3
:1094D000B9E7A942B3D918464FF4007200213EF013
:1094E000DFF9B0E74FF40072294618463EF0D8F98C
:1094F00080220346D94886F89E210C2286F8A221B4
:10950000D9F80813D9F800238142C3F8C611C3F86B
:10951000CA2100F36881D24B013AD24C83FB01038C
:10952000C81784FB01C40B44C0EB6313C0EB2430A9
:10953000CD4C84FB03C4C3EB831C86F8A1018010CF
:10954000A1EB0C011C4420F03F000131014386F8DF
:10955000A011D917C1EBE4110B4486F89F31BF4B22
:109560009A4200F34C81BE4BBE4883FB0213D117D5
:1095700080FB02401344C1EB6313C1EB2031BA48B6
:1095800080FB0340C3EB831486F8A5118910121BDE
:10959000184421F03F0101320A4386F8A421DA176A
:1095A000C2EBE010034486F8A331552386F8DE3180
:1095B000AA2386F8DF3146E7002007B0BDE8F08F28
:1095C0004FF0FF320024A6F11C00049383F8EC2135
:1095D000214683F8ED2183F8EE2183F8EF21522212
:1095E0001A705A7061229A7083F8E7214122DA706A
:1095F00083F8E621722283F8E42183F8E521D9F883
:109600002023C3F8E8214FF4F0723EF049F9049B9F
:109610005522C6F8D041C6F8D441C6F8D84183F8DF
:10962000FE216FF0550283F8FC4183F8FD4183F879
:10963000FF2108E78D4C00214FF4007218463EF0E0
:109640002FF903464FF0000C022203CC46F8191CF8
:10965000EB2146F81D0C082006F8201C582106F8BE
:109660001F1C902106F81E1CF8211A7383F80BC0EA
:1096700006F8130C9A7383F80FC006F8102C06F83E
:109680000B1C83F82C20D9F80813D9F8002383F891
:1096900019C0521A83F81BC083F81DC01A6283F8E0
:1096A0001EC083F81FC083F82DC083F82EC083F836
:1096B0002FC0D9E9C412521A80215A623F221A7669
:1096C0004FF0FF329A763E221A77012283F830203B
:1096D00083F831C086F820102921654B86F82210C6
:1096E000942186F8260086F823100E21614A86F818
:1096F00024100D2186F82510552186F8DE11AA21A7
:1097000086F8DF1103CBC6F82B101988C6F827009E
:109710009B78A6F82F1086F8313003CAC6F83200BD
:10972000C6F836108FE64FF40072184600213EF05E
:10973000B7F8D8F840200346002C76D1002A00F074
:10974000A380D8F8303011224B49CDE90044FFF70F
:10975000CFFDD8F840301A6C002A00F0A1801B6BB6
:10976000CDE900441122454930464FF4E07BFFF734
:10977000BFFD06F12003D8F84480B8F1000F3FF494
:1097800062AE03F120049B44049523464446984668
:1097900010E05CF81C1B0025236BCDE900C5FFF72A
:1097A000A7FDABEB0803A46C08F12008002C18BF40
:1097B0001F2B51D92379A44604F11C0E1122A8F1C4
:1097C0002000002BE5D162792569236B42F021024C
:1097D0002168CDE900E5FFF78BFDE2E7A91A1846FD
:1097E00037F0D6FA2FE6FF23013A86F89F3186F844
:1097F000A13186F8A031194B9A427FF7B4AEFF230E
:1098000086F8A33186F8A53186F8A431CDE659460D
:1098100018464FF400723EF043F814E6A6F1240314
:1098200043F804AF9F42FBD10DE6002AD8F84480EC
:109830000CBF01220222C2EB0414B8F1000F3FF466
:1098400002AE4246013C926C002C01DD002AF9D1A7
:1098500090464FF4007B90E7049DF4E5FF03FB0086
:109860008320088297554541818080805CED040803
:1098700068ED040874ED040854ED040858ED04087C
:1098800048150120DEADBEEF23460822D9F80413A7
:109890004FF4F07BCDE90044FFF72AFD33466AE739
:1098A0002346CDE900445DE7F0B5044690F8210178
:1098B00087B008B907B0F0BD0DF05CFC0546002884
:1098C00052D0818826222A4BC280E360B1FA81F30C
:1098D000202BC3F11F02EDD026480C34264E104435
:1098E00006EB820290F84075C2F838434FF0004210
:1098F00032FA03F305D0214A106820EA0300106011
:10990000536100233E44019101A905932868CDE9E4
:1099100003331B4B029332F0C7FF96F8FC33F02B56
:109920000CD8AA884FF00043B2FA82F2D340C1D0DB
:1099300012490A6813430B6007B0F0BD114BF022C7
:109940000321DC5786F8FC232046DE5D37F010FF4C
:10995000002CE6DB06F01F06012364090A4A03FA1D
:1099600006F642F82460DCE7014BE360A2E700BFA3
:109970002D870008187C040848150120003C014090
:10998000000011101CEE040800E100E030B490F873
:10999000443000F10801484A012BC2F804146ED08B
:1099A00083684649DC68464D24F46004AB42DC60C1
:1099B000DC6844F46004DC609C6B24F440149C6319
:1099C0009C6B44F480149C639C6B24F4F8449C636B
:1099D0009C6B44F488449C639C6824F470249C60D1
:1099E0009C689C609C6824F440149C609C689C600B
:1099F0005C6824F480645C605C6824F480545C607F
:109A00005C6901EA040159615969596147D0DC6810
:109A10002A4924F0E064DC60DC6844F0E064DC6047
:109A20009C6B24F440149C639C6B44F480149C63F2
:109A30009C6B24F478249C639C6B44F410249C63FA
:109A40009C6824F470249C609C689C609C6824F44E
:109A500040149C609C689C605C6824F480645C603A
:109A60005C6824F480545C609C692140144C9961CA
:109A7000A3429969996118D0002380F844301148B5
:109A8000114B848DC18D408D091BC2F80C44C2F866
:109A9000080493FBF1F330BCC2F8103470470B4C50
:109AA000616841F400016160B1E708494B6843F423
:109AB00000034B60E0E700BF4815012000F0FFFF06
:109AC00000200140007AF01F80380100002301408F
:109AD000704700BF014833F007B800BF701901207C
:109AE000084810B4D0F82834D0F85C4499691A6852
:109AF0002CB1234600F585605DF8044B18475DF8EE
:109B0000044B704748150120014832F0EDBF00BFFB
:109B1000D0190120084810B4D0F88834D0F8BC44DB
:109B200099691A682CB1234600F591605DF8044BE1
:109B300018475DF8044B704748150120014832F082
:109B4000D3BF00BF301A0120084810B4D0F8E83461
:109B5000D0F81C4599691A682CB1234600F59D6020
:109B60005DF8044B18475DF8044B70474815012019
:109B700030B40469002341684025E46882690C31EF
:109B8000546244699560536093631160C2E9033382
:109B9000C2E90533C2E90733C2E90A33C2E90C332B
:109BA00084B1C269E068936350621160C2E9013315
:109BB000C2E90333C2E90533C2E90733C2E90A3314
:109BC000C2E90C3330BC7047114A037A0168D35C98
:109BD00010B4CC58CA1824F00104CC501368DB0729
:109BE000FCD4037D1F2B09D9203B20225DF8044BB8
:109BF00002FA03F343F01803CB60704720225DF8AC
:109C0000044B02FA03F343F018038B60704700BF64
:109C100010EE0408F0B50668356A00295CD12F689B
:109C2000AC68D6F818E0002F5FD0364B3B40B3F15C
:109C3000005F61D007F01F0104F11F0327F01F022E
:109C4000194421F01F01BFF34F8F00290BDD114490
:109C500002F12003DFF8B0C08B42CCF868221A462C
:109C600003F12003F8D1BFF34F8FBFF36F8F036869
:109C70004FF48062CEF80470CEF814205B69CEF801
:109C8000204043B36868F669002837D01D4B034075
:109C9000B3F1005F1AD000F01F0220F01F011F3245
:109CA000224422F01F02BFF34F8F002A0ADD0A442C
:109CB00001F12003144D9A42C5F87012194603F1C0
:109CC0002003F8D1BFF34F8FBFF36F8F4FF4806342
:109CD000706073613462F0BDEC69002CFBD06F6979
:109CE0001435D6F818E0002F9FD1084A3346CEF835
:109CF0001470CEF80420C1E73346B9E7044B706115
:109D00007360E7E70000FFFF00ED00E04400002083
:109D100048000020F8B507680646D7E90454002C2F
:109D200050D0A0612B7D1F2B39D82022286802FA41
:109D300003F343F018038360237D1F2B3AD92022BD
:109D4000203B02FA03F3226843F01803D3606368F0
:109D5000002269680A601A601A6842F010021A60EC
:109D6000BA69297A39F0E8FDFA69217A206839F070
:109D7000E3FD2A7A2A492F6833688D5C5A687B593B
:109D8000206843F001037B51237AC95C435843F0B8
:109D900001034350536843F003035360F8BD203B75
:109DA0002022286802FA03F343F01803C360237DDE
:109DB0001F2BC4D8202202FA03F3226843F01803B1
:109DC0009360C4E72A7D6B681F2AA8611FD82021F1
:109DD000286801FA02F242F0180282600021BA6992
:109DE0001960196841F010011960297A39F0A4FD51
:109DF0002A7A0B4933682868895C5A68435843F0CB
:109E000001034350536843F002035360F8BD203A06
:109E10002021286801FA02F242F01802C260DDE750
:109E200010EE040810B1036882889A61704700BF81
:109E300018B1838802681B049361704708B51D2020
:109E40000DF098F908B183794BB11E200DF092F90D
:109E500008B1837903B108BD5523C38008BD5523DC
:109E6000C380F2E7D3B2012B23D802EB42024FF0BA
:109E7000000C70B54FEA820E0F4C634622460EF17D
:109E8000080504E00133172B11D012F81CCF6045F0
:109E9000F8D192F801C08C45F4D15659002EF1D07A
:109EA000C3EBC3030EEB83030433E01870BD002043
:109EB00070BD0020704700BF6881040810B40C4CCE
:109EC000002304F2945C01E0152B0CD003EB430259
:109ED00001331CF802108142F6D122445DF8044B94
:109EE00092F9960570474FF0FF305DF8044B7047CC
:109EF00048150120D3B2022B21D802EB42020023E5
:109F000030B54FEA820C0F4D0F4C2A460CF10C0E67
:109F100004E00133172B10D052F82C4FA042F8D197
:109F200014798C42F5D152F80E40002CF1D02C223D
:109F300002FB03C30833E81830BD002030BD002009
:109F4000704700BF187C0408000001400348D0F8A7
:109F50008C300BB17C301847704700BF00000120E7
:109F60000348D0F8B0300BB1A0301847704700BF9D
:109F7000000001200348D0F8D4300BB1C43018479A
:109F8000704700BF000001200348D0F8F8300BB143
:109F9000E8301847704700BF000001200348D0F8A0
:109FA0001C3113B100F5867018477047000001207E
:109FB0000348D0F8403113B100F598701847704746
:109FC000000001200348D0F8643113B100F5AA70F5
:109FD00018477047000001200348D0F8883113B1BA
:109FE00000F5BC7018477047000001200348D0F806
:109FF000AC3113B100F5CE70184770470000012056
:10A000000348D0F8D03113B100F5E070184770471D
:10A01000000001200348D0F8F43113B100F5F270CC
:10A0200018477047000001200348D0F8183213B1D8
:10A0300000F5027018477047000001200348D0F86F
:10A040003C3213B100F50B70184770470000012037
:10A050000348D0F8603213B100F514701847704708
:10A06000000001200348D0F8843213B100F51D70C0
:10A0700018477047000001200348D0F8A83213B1F8
:10A0800000F5267018477047000001200138064B84
:10A09000064A00EBC00003EB8000C06F90420CBF8B
:10A0A0009520962037F094BB00000120006002400C
:10A0B00001382DE9E84100EBC000134D1E46134B5B
:10A0C00005EB800590460F46E86F98420CBF95203F
:10A0D000962037F07DFB95F991004FEA9811C5F86D
:10A0E0008C70C5F8946037F043FB95F99130002BE4
:10A0F00007DB03F01F0001225B090549824041F89C
:10A100002320BDE8E88100BF00000120006002407C
:10A1100000E100E0800AA0F58010522808D8054B25
:10A12000184490F8F4330D2B02D8034AD0567047E8
:10A1300000207047187C040800EE04080120FEF798
:10A14000B5BD00BF0220FEF7B1BD00BF0420FEF781
:10A15000ADBD00BF0820FEF7A9BD00BF1020FEF76F
:10A16000A5BD00BF4FF47870FEF7A0BD4FF47C4052
:10A17000FEF79CBD2DE9F04F884683B00446174694
:10A18000002800F0BC8002685E4B13449B0A5E4AC4
:10A19000C8F3411B134493F8D40737F019FBC8F3F5
:10A1A0008103B4F804E008F00302256801939EFAE5
:10A1B000AEF0B0FA80F002F1FF3A3EFA00F35ED062
:10A1C0000126032103E001303EFA00F357D006FADE
:10A1D00000F313EA0E03F6D0D5F8009093FAA3F437
:10A1E000B4FA84F493FAA3FCBCFA8CFC6400BAF1D0
:10A1F000010F4FEA4C0C01FA04F402FA0CFC29EAB4
:10A20000040444EA0C042C6049D9D5F80C9093FA64
:10A21000A3F4B4FA84F493FAA3FCBCFA8CFC6400B3
:10A22000022A4FEA4C0C01FA04F40BFA0CFC29EA5E
:10A23000040444EA0C04EC60C5D193FAA3FCBCFA14
:10A240008CFC1C0ABCF1070F41DC2C6A93FAA3FCBE
:10A25000BCFA8CFC93FAA3F34FF00F09B3FA83F323
:10A260004FEA8C0C01309B0009FA0CFC07FA03F34F
:10A2700024EA0C0423432B623EFA00F3A7D1BAF17F
:10A28000010F09D86B68C8F3001823EA0E030EFB10
:10A2900008FE4EEA03036B6003B0BDE8F08FD5F80B
:10A2A000089093FAA3F4B4FA84F493FAA3FC64003C
:10A2B000BCFA8CFC01FA04F44FEA4C0C29EA0409BC
:10A2C000019C04FA0CFC49EA0C04AC609DE7D5F84B
:10A2D00024C094FAA4F9B9FA89F994FAA4F30F24E2
:10A2E000B3FA83F34FEA89099B0004FA09F907FAE4
:10A2F00003F32CEA090C4CEA03036B6263E74FF0AB
:10A30000FF3344E70000FEBF187C040800B131E7CA
:10A31000704700BF2DE9F047814DC0EB001605EBFB
:10A32000C606D6F8D435002B00F0B88004460701E5
:10A3300096F8440637F04CFA96F84436012203F0BA
:10A340001F015B09013B8A40032B0AD8DFE813F0A9
:10A35000DC000400E200D60072494B6A23EA0202E4
:10A360004A623B1B04F1010905EBC3035FFA89F95B
:10A3700093F8D8050CF0FEFE064618B1122380F8BB
:10A38000079083713B1B05EBC30393F8D9050CF0D1
:10A39000F1FE824618B1132380F8079083713B1BAE
:10A3A00005EBC30393F8DA050CF0E4FE804618B120
:10A3B000142380F8079083713C1B50462E2105EB37
:10A3C000C40595F8DC25FFF7A1FF95F8DD250E21E2
:10A3D0004046FFF79BFF95F8DB252E213046FFF71F
:10A3E00095FFD5F8D43550491A688B4222F04002C7
:10A3F0001A6055D04D4A934269D002F5806293426B
:10A4000058D1484A116A41F400411162116A21F49D
:10A41000004111625A6842F480525A601A6852062A
:10A4200034D443491E68D1F8D042D1F8DC02D1E9D6
:10A43000AF25B0F5005F42EA0502D1F8C85242EA02
:10A440000502D1F8CC5242EA0502D1F8D45242EAD0
:10A45000040242EA0502D1F8D85242EA0502354D1B
:10A4600042EA000205EA060542EA05021A60D1F84E
:10A47000C4225D6842EA14422F4C04EA050442EA11
:10A4800004025A6002D1B1F8E0221A61DA6922F4BA
:10A490000062DA611A6842F040021A60BDE8F08793
:10A4A000204A516A41F480515162516A21F480512D
:10A4B0005162AFE7214A934213D11A4A516A41F4DB
:10A4C00000515162516A21F400515162A2E7154ACC
:10A4D000116A41F480411162116A21F480411162D4
:10A4E00098E7174A934295D10E4A516A41F4801178
:10A4F0005162516A21F4801151628BE709490B695D
:10A5000023EA02020A612CE706494B6923EA0202A8
:10A510004A6126E703490B6A23EA02020A6220E73E
:10A52000481501200038024000300140003800404A
:10A53000000001204000FFFFFBF0FFFF003401405E
:10A540000050014008B1002214E670472DE9F041A7
:10A55000CB781BB900263046BDE8F08100F110072A
:10A560000C460546897838460CF0A6F806460028C1
:10A57000F0D0E0780CF0FEFDA86123780133DBB267
:10A5800010B1C371222383710D21FFF7DBFFA8698E
:10A59000FFF748FC0F4AD2F8D832632BFBD90E489C
:10A5A0000CF076F8DFF838800C4BA88202E058F8FF
:10A5B000043B53B13846984703460028F7D0286932
:10A5C00085F8D8303AF0CCFDC5E7E0781E460CF0AF
:10A5D0002FFEC0E74815012040420F00D197030825
:10A5E000F88304082DE9F84F204F6023044603FB4D
:10A5F0000073D3F81454002D00F0A781D3F81C6425
:10A600001EB1B379002B40F0A081602303FB0473DB
:10A61000D3F82094B9F1000F04D099F80630002B3C
:10A6200040F09381631CDBB216B11522F371B27155
:10A63000B9F1000F04D0162289F8073089F80620F6
:10A64000287C4FF0090837F0C3F83046FFF7EAFBE3
:10A6500048461121FFF7E6FB3046FFF773FF112153
:10A660004846FFF76FFF4FF0330A04E0481501201A
:10A670000A200EF025FC26B13368B2881B691A4205
:10A6800002D1BAF1010AF3D13046FFF7D1FB052020
:10A690000EF016FC3046FFF7C5FB05200EF010FC4F
:10A6A000B8F10108DFD130464FF0600BFFF7C0FB77
:10A6B00005200EF005FC4846FFF7BAFB0BFB04FB38
:10A6C00005200EF0FDFB304607EB0B0AFFF7AAFB57
:10A6D00005200EF0F5FB4846FFF7A4FB9AF824345A
:10A6E00030460422002B9D4E14BF3E211E21FFF751
:10A6F0000DFE9AF824345E444846002B4FF00402C5
:10A70000C14614BF3E211E21FFF700FE4C224146E8
:10A7100030463DF0C5F8DAF814349FED917AB0EE8A
:10A72000084A5B68F7EE003ABAF826B4CAF828344B
:10A730008C4B9FED8D5A9A688C4BC2F38222134446
:10A7400093F8E827D7F89432D34007EE903AF8EE22
:10A75000677AC7EE275A07EE90BA9FED857AF8EE32
:10A76000E77AC7EE274ADFED837AB0EE007AE5EEAE
:10A77000877AA5EE875A25EE844A37EE856A74EE0D
:10A78000E72ABBF5C87F40F2145309F1010ED7BF89
:10A790001946322364234FF49670C8BF782007EE21
:10A7A00090EAD4BF4FF4167C4FF4827C0344B8EE99
:10A7B000E77AC8BF4FF4FA7107EE903A27EE257A90
:10A7C00001EB0C03F8EEE76A86EE873A73EE636AF4
:10A7D000FCEEE67A17EE902A07EE90CAB8EEE73A5A
:10A7E00007EE903AF8EEE77A23EE243AC3EE276AB2
:10A7F00036EEC53A72EEE66AC3EE077A77EEE37A92
:10A80000FCEEE77A17EE901AC6EE877A77EEE37AD7
:10A81000FCEEE77A17EE903A03F1020C0CEB010A1A
:10A82000F0EE466A07EE90AAF8EE677AE7EE276A3E
:10A83000F4EEE64AF1EE10FA00F389805FFA82FC4A
:10A84000BCF10F0F00F28580323807EE900AF8EE67
:10A85000E77A77EEC47AC7EE876AFCEEE67A17EEFF
:10A8600090CA5FFA8CF00F2873D888B2FF2870D88E
:10A8700098B2FF286DD840EA097310054FEA0C42E0
:10A8800000F07F6002F47F02034313433A4A02EA76
:10A89000012143EA01086020012300FB0474002722
:10A8A0003046C4F83434C4F82C84C4F83074C4F886
:10A8B0003874C4F83C74C4F84474C4F848743AF06A
:10A8C00033F894F86934202BD9B21AD194F868344B
:10A8D000012B16D0242384F86934D4F828341A685C
:10A8E00022F001021A601A6822F480521A601A6873
:10A8F0001A601A6842F001021A6084F8691484F838
:10A900006874002195F9120036F032FF95F9123083
:10A91000AA7C002B07DB02F01F0101225B098A40A1
:10A92000164941F82320002195F9110036F020FF47
:10A9300095F911306A7C002B07DB02F01F01012220
:10A940005B098A400D4941F82320BDE8F88F0131A9
:10A9500064E7BEF10F0F9ED0F14612E77019012097
:10A96000286B6E4E0038024000001643187C040825
:10A97000002474490000704200FFFF0000E100E085
:10A9800070B50E4CD4F81C6F002E15DD04F58764ED
:10A99000002503E0B54204F120040DD0237F0135EA
:10A9A000002BF7D0E06800220028F3D0217D20346E
:10A9B000FFF7E0FBB542F1D1012070BDC8010020D6
:10A9C000AB4B2DE9F04F91B093F8C687A94B00250A
:10A9D000A94F0093A94BA3F50F6ADFF8B892DFF8EF
:10A9E000B8B24E46B30AA3F58013522B55D8534440
:10A9F00093F8F4330D2B50D8B8F1010FFC5640F00A
:10AA00001E81012C3FD14FF00009494620460EF02F
:10AA1000E9FD0EF06FFE90F800C0BCF1000F18BF0A
:10AA2000BCF1540F14BF4FF0010C4FF0000C40F07C
:10AA3000028109F104091FFA89F9B9F1100FE4D173
:10AA4000002D00F0BA808B4A00210DE0534493F8AA
:10AA5000F4330D2B0FD8FB56A3420FD0013102F572
:10AA60008672A94280F2A580906803689B0AA3F5CC
:10AA70008013522BEAD90023A342EFD143799BF8EC
:10AA800005009842EAD17D4B5B4513D05BF8206FFF
:10AA9000B30AA3F58013522BA9D9B8F1010FF2D054
:10AAA00001230024B8F1020FADD1002BABD0734BC2
:10AAB0005B45EBD1009B013503F58673042D0093B4
:10AAC0008BD1DFF8D8814FF0000B08F59E77A8F501
:10AAD000876ADAF81C3F5B4568DDD8F80C60002E09
:10AAE00064D098F81030B088D6F80090DAF80450A6
:10AAF00063490193B0FA80F34944002D0293C3F1F6
:10AB00001F034FEA9121009340F3CD80594B00245D
:10AB100005E0013403F58673AC4200F0C1801A6889
:10AB20008A42F6D14FF48673524A03FB0424009AFA
:10AB30000BF1010B019B5100C8F8042088F810307C
:10AB40000323C8F80C6003FA01F5C8F81840B37184
:10AB5000012386F807B01646A26C03FA01F12A43D6
:10AB6000A264226D0A4322659AF80020002A6BD065
:10AB700003FA06F11A46636D0B4389B26365C9F89F
:10AB80001800D4F8AC00FDF7B7FA204608F1200809
:10AB9000FDF786FA0123BBF1080F07F1180708F843
:10ABA000043C08F8033C07F8073C92D111B0BDE81B
:10ABB000F08FBCF1000F7FF466AF5846FDF734FA12
:10ABC0009BF80540C3B2022B00F24B83431C2D4A75
:10ABD0005BB203EB430398002B4B03F5727104E067
:10ABE000994200F03E8353F82C2FB242F8D11A79E3
:10ABF000A242F5D11A58002AF2D094460023234AE3
:10AC000051680133614513D0102B02F12402F7D1B2
:10AC10004FF0FF3303EBC3031D4A02EB830393F8AA
:10AC20009830002B7FF42FAF009BC3F808B041E7AA
:10AC3000DBB2013BEEE7002D7FF405AF23E7B4F173
:10AC4000080318BF01232DE702990004C1F12F0565
:10AC5000009903FA01F1AB40656D89B22B4363653E
:10AC6000C9F81800D4F8AC00FDF746FA8DE700BF2C
:10AC700048150120D001002000EE040808850408D2
:10AC80000000FEBF00000140187C04087C00012089
:10AC90000000012000040140088404080006002090
:10ACA000032C00F398824FF4867303FB05A3186905
:10ACB000002800F0C08299600131CAB283F81121E6
:10ACC0000492542283F810216B1C0268CAF80430E5
:10ACD00044790392FDF7A8F9A04B864693F8DB3739
:10ACE0000593C3B2022B00F2BC8200F1010C9C4917
:10ACF0009C4800234FFA8CFC039A0CEB4C0C4FEA57
:10AD00008C0C05E00133172B00F0AB8251F82C0FAF
:10AD10009042F7D10879A042F4D151F80C000028F4
:10AD2000F0D02C210EEB4E0E002401FB03F303EBBD
:10AD30008E0E8B4B734419694FF4867303FB05A386
:10AD4000C3E90701884B9C46DCF80410884217D001
:10AD500001340CF1240C102CF6D1844B93F87420A0
:10AD6000002A00F06182824B82488349834AC3F8FB
:10AD70004804C3F84014C3F8502411B0BDE8F08F64
:10AD8000611C7A48C9B2013901EBC10100EB8101B4
:10AD900091F8980006900028E5D104984FF08C0CAB
:10ADA00081F899004FF4867000FB05F42046542486
:10ADB00081F898400446811071480394544400FB84
:10ADC00001F1C4F800C101FB0CF001EB4101C4F832
:10ADD0000C9001EB011C6B4901EB4000A1F54C719B
:10ADE00001EB8C01C4F8FC00C4F8B4103321C4F8A2
:10ADF000B8106549039C0C195849D1F894920599EB
:10AE0000062900F00D82072960486149DFF888E1D2
:10AE10000CBF84468C465F4908BF714610460593B7
:10AE2000039BB9FBF1F1B9FBFCFC4A1E4FF4867998
:10AE30000CF1FF3192B209FB05A9A9F8BC1003F18E
:10AE40005801A9F87420504B226600221944A4F836
:10AE500058206266E26538F0EBFCD9F810301868CB
:10AE60000493026842F0800202605A79059B0C2A22
:10AE700008D8DFE802F06B070707640707075C07DD
:10AE8000070754004FF4867202FB05A251694FF088
:10AE9000600C02684FF000094FF0020ECDF820C0A0
:10AEA0004FF4807C22F00102CDF82890CDF838C014
:10AEB0004FF0010CCDF83490CDF824C04FF00A0CBF
:10AEC000CDF83C900593CDE90BCE026008AA38F08E
:10AED0006DFB4FF48672049B02FB05A21968526950
:10AEE000059B012A5AD0042A58D0102A00F0A881C4
:10AEF000402A53D0B2F5807F00F0A581B2F5806F73
:10AF000000F0A181B2F5805F00F0A381B2F5803F2F
:10AF10004FF03C090CBF08224FF400623FE04FF4B1
:10AF200086724FF4805102FB05A25161AFE74FF4E6
:10AF300086724FF4807102FB05A25161A7E74FF4BE
:10AF40008672102102FB05A25161A0E74FF48672C0
:10AF5000012102FB05A2516199E700BF48150120BC
:10AF6000187C0408000001407C0001200000012042
:10AF7000C012002045590108415901084D590108E6
:10AF80006B4CA407501A0020D0010020105522005D
:10AF900044950800D0DD060040771B00082201F12F
:10AFA000180050F809C042EA0C0240F80920049A3F
:10AFB0001079002840F01B814FF48671002201FBBC
:10AFC00005A1D1F810C0C869DCF800C0DCF8001099
:10AFD00041F00101CCF8001059680132884200F0BC
:10AFE0000281102A03F12403F6D14FF0FF339E4A69
:10AFF00003EBC30302EB8303D86F9C4B98420CBF57
:10B000009520962036F0E4FB4FF4867303FB05A3EE
:10B010001A6953790C2B00F2E380954901EB430345
:10B02000B3F810C94FF486731068924903FB05A367
:10B03000A3F818C0002306E0904200F00881013315
:10B04000042B00F00B8151F83320002AF4D1DAF8F8
:10B05000202F0132CAF8202F0AEBC302DB00C2F80E
:10B06000240F1944069823469022B1F804E0DFF833
:10B0700018924CEA0E0CA1F804C07F49FFF718F8AB
:10B080004FF486734FF4403C402103FB05A5002399
:10B09000E869026842F010020260026842F014029D
:10B0A0000260C4F8A830C4E91F33C4E9283304237C
:10B0B0002A6AC4F898C04FF4804CC4F89C304FF40E
:10B0C0008063A167C4F88430C4F89420D5F8B82010
:10B0D000C4F89020C2B220F0FF00103AA9FB023160
:10B0E000EA68039B1832090922674FF48052C4F8BA
:10B0F000882003F17002614B1A44D5F8B430C4F8CB
:10B100008CC0636738F018FCE869039B4FF400318A
:10B11000D0F800E04FF4006C03F1B802574BC4F8CC
:10B1200020E0D0F814E01A440023C4F824E0D0F85A
:10B1300004E0C4F828E0D0F808E0C4F82CE0D0F827
:10B140000CE0C4F8C830C4F830E0C4F8F030C4E90A
:10B150003033C4E93A332B6A03930423C4F8E43050
:10B160004FF48063C4F8CC30039BC4E93731D5F881
:10B170000031C4F8D830C3B220F0FF00103BA9FB67
:10B180000331EB68C4F8D0C010330909C4F8B830F3
:10B19000D5F8FC3003934FF48043C4F8D430039BBC
:10B1A000C4F8BC3038F0C8FBEB69B0881A68D6F830
:10B1B000009062635A69A2635A68E2639A682264E3
:10B1C000DA6862641A6842F010021A601A6842F083
:10B1D00014021A60ABE40323294A82F8DA37C2E585
:10B1E0004FF0000C1EE7D3B20693013BFFE6079336
:10B1F00005910BF0BFFF05998146079B58B1059358
:10B200000221049B1A7AFEF7B5FF049B5422A9F889
:10B2100006201968059B4A6C42F400424A64CBE65A
:10B22000DFF868C01749F9E50499542283F87510CE
:10B2300083F8742097E50223114A82F8DA3792E501
:10B240004FF40062ABE608224FF00409A7E6DB00EA
:10B2500007E74FF400624FF00409A0E600239B8843
:10B26000FFDE00235B68FFDE00000120006002407B
:10B27000187C0408EC10002045810008D001002053
:10B2800048150120A0BB0D00ABAAAAAA882A11006C
:10B29000F8B590F8B2311C09013C052C0FD8184EB6
:10B2A000054603F00F0306EB4402B2F82C0940FAFE
:10B2B00003F2D20703D595F8BD71012F01D001200B
:10B2C000F8BD07FA03F33444013B18403AF0D4FECA
:10B2D00094F8382913180B4A02EBC30152F83320B3
:10B2E0008B8810691840EBD00023084695F8B321ED
:10B2F000022185F8BD31FEF73DFF3846F8BD00BF9D
:10B30000187C0408241D0120014B53F820007047CD
:10B3100050280040014B43F820107047502800404F
:10B320001D4B1E48196C1E4A41F0805130B41964FF
:10B3300082B0196CFF2401F08051019101990168DC
:10B3400041F480710160CA20196C41F48061196474
:10B35000196C01F4806100915321009D5462506288
:10B3600051625B6FDB000DD40E4B00210E4A43F897
:10B37000041B9342FBD10D4B0D4AC3F8502802B079
:10B3800030BC7047094A0A4BD2F850289A42EBD198
:10B3900002B030BC704700BF00380240007000406F
:10B3A00000280040542800406C2800400020004045
:10B3B00031666542F0B50446D0F89400434B83B043
:10B3C000A16804F1640204F118070E68C1B220F00C
:10B3D000FF0001921039A3FB0131090938F0F6FA98
:10B3E000616D0023019A012984F8583018D004298E
:10B3F00016D0102955D0402912D0B1F5807F53D0F6
:10B40000B1F5806F50D0B1F5805F55D0B1F5803F78
:10B410004FF03C030CBF6FF0080C6FF4006C01E0C0
:10B420006FF0080C06F118053046E95801EA0C01E6
:10B43000E950616D38F0BAF8636D012B16D0042B1A
:10B4400014D0102B0FD0402B10D0B3F5807F2FD00D
:10B45000B3F5806F2CD0B3F5805F31D0B3F5803F6A
:10B4600006F1540502D04FF4006100E008212B687A
:10B470003A46D4F894000B4340212B602162C1B2BC
:10B48000124B20F0FF001039A3FB0131090938F0FD
:10B4900053FAD4F89420136843F01003136003B0F8
:10B4A000F0BD6FF4006CBDE76FF0080C0423B9E742
:10B4B00006F11C050821DAE76FF4006C0423B1E7FC
:10B4C00006F11C054FF40061D1E700BFABAAAAAAA0
:10B4D0002DE9F04FDFF85CB29BF800402DED028BB8
:10B4E00087B034B90124204607B0BDEC028BBDE81B
:10B4F000F08F8B4BDFF840A2D3F8D83208EE103A29
:10B500000CF020FE9AF8243C0390002B00F00181FF
:10B510000BF234670BF634330BF63C4400263D4601
:10B5200001930597DAF81C34039AD31A03D4EA6D11
:10B530009A4200F3D08006EB86030BEB431393F89B
:10B540008C3603F0FF020292002B00F08D80D5F8BC
:10B550009410AB6873481A68CBB221F0FF01103B1E
:10B56000A0FB030370481B09C35C19444B68A989FD
:10B570001FFA83FCD368CCF1160C23EA0103BCF15B
:10B58000070FD36070D9DBF83C3B00220121013367
:10B5900096468946CBF83C3BD5F89C301F46049331
:10B5A00057F8048B40461CE0D7F80080BEF1140F1A
:10B5B000A8EB000340461CDC13F1080848BF03F168
:10B5C00017084FEA28130EEB281E03F1FF3801314C
:10B5D00002FA03F3043709FA08F28C4542EA03023F
:10B5E00007D38C45E0D8CEF1150338684FF0150E1F
:10B5F000EBE7BEF1150F65D14C49C2F38423C2F3CA
:10B60000441001EB830301EB8000D3F84039D0F8FC
:10B6100040091B0243EA001302F01F00C2F3C432C8
:10B6200001EB800001EB8202D0F84019D2F84029EA
:10B630000B4343EA023383EA132282EA121202F036
:10B640000F020F2A3ED1C3F30F134FF6FF7293423E
:10B6500038D0B3F5606F45D0019A9381029918EE06
:10B66000102A20460AF0BAFF019B284601365C34B6
:10B670001433A0350193FFF79DFE9AF8243CB342A2
:10B680003FF750AF0122059F8BF83A2C0022CAF8F1
:10B690001C24002B3FF426AF03EB830307EB43137B
:10B6A0003A7CA03757F84C0C12F0020F57F8982C40
:10B6B00011680A6A14BF42EA80020243BB420A626E
:10B6C000EED10FE7DBF8383B0133CBF8383BCEB196
:10B6D00000230293C2E70024204607B0BDEC028B92
:10B6E000BDE8F08F0E4991F8EC2302EB420201EB2A
:10B6F000C202324492F899230D2AADD18023019AD7
:10B700009377ABE70499582209483CF0A1F80296D8
:10B71000A4E70122CAF81C348BF83A2CE3E600BFF8
:10B7200048150120ABAAAAAA10EE0408187C040848
:10B73000A80D0020C8010020C0120020D0F8201160
:10B74000242200232DE9F041C0F8942104460A6820
:10B75000806804F5907522F001020A600B604B606E
:10B760008B6094F805C0C4F89C314FEA8C22C4F871
:10B77000943184F8903102F48052C4F89831C4F8BE
:10B780003831C4F828214FEA0C32C4F8403102F4B1
:10B790000052C4F834312379C4F82C214FEA0C222A
:10B7A000C4F8240113F0010002F48062C4F83021CF
:10B7B00002D00422C4F8342113F0020305D0D4F8D7
:10B7C000342142F00802C4F834211CF0010F0DD0DE
:10B7D00048B1D4F8442142F00202C4F844214FF4A5
:10B7E0008032C4F84C21002B40F0FF80A84B03F1BD
:10B7F000200053F8042F944200F0BD809842F8D105
:10B800001CF0080F40F0CD80D4F89431002B00F0EC
:10B81000168124232846C4F894310B6823F00103D1
:10B820000B6031F0B1FD012815D0D4F84431002B64
:10B8300040F01881D4F8203128465A6822F490420A
:10B840005A609A6822F02A029A601A6842F001024D
:10B850001A6039F03DF82379DA0761D5D4F8FC2075
:10B86000002A00F0D9800023D4F8041104F13C062A
:10B87000E263A3644FF480623046E264C4E91013CB
:10B88000C4E91433C4E91833C4E91A334FF48033DC
:10B89000E3654FF48073A36539F094F8304630F0D7
:10B8A00021FFD4F89881C4F88C61B8F1200F656746
:10B8B00031D1E368626999B26AB3B1FA81F77F095D
:10B8C00049B394F89001012825D030460126C4F8E8
:10B8D0009C710B4684F890612226A4F87811C4F874
:10B8E00098616C4ED4F82011A6676B4E2431C4F8D1
:10B8F0007421E667694EC4F88C70C4F8886030F033
:10B900008BFF002800F0B280102384F89071C4F8F7
:10B910009C31C4F89481E26B23795268C4F81421F5
:10B920009B0777D5D4F80021002A69D00023D4F8EA
:10B93000081104F19C06C4F89C20C4F8A8304022E9
:10B94000C4F8B8303046C4E92C33C4E93033C4E914
:10B9500032334FF48033C4F8BC304FF48063C4E911
:10B960002812C4F8AC3039F02DF8304630F0BAFE69
:10B97000002867D0FEE7002C3FF442AF94F8BC31BA
:10B98000002B3FF43DAFD4F844311CF0080F43F0D6
:10B990000803C4F844314FF40043C4F854313FF471
:10B9A00033AFD4F89431002B55D024232846C4F863
:10B9B00094310B6823F001030B6031F0E5FC0128A2
:10B9C0003FF449AFD4F84431002B47D1D4F82031AB
:10B9D00028465A6822F490425A609A6822F022025D
:10B9E0009A609A6842F008022EE7D4F8443143F096
:10B9F0000103C4F844314FF40033C4F84831F5E68C
:10BA0000D4F8A0311A6842F080021A601A6842F035
:10BA100040021A60BDE8F081D4F8A021116841F419
:10BA200080711160916841F001019160116841F0ED
:10BA300020011160116841F01001116070E784F875
:10BA40009031E6E6D4F89C30C4F88861C4F8D4504C
:10BA50005860BDE8F08184F89031A6E7284631F0BF
:10BA60004DFEB3E7284631F049FEE3E6D4F8203135
:10BA700084F890011A6842F480721A609A6842F061
:10BA800001029A609A6842F040029A6043E700BF60
:10BA9000E81E0020D98F0308099003080D900308C1
:10BAA000F8B5EFF31185502383F31288D0F80031F5
:10BAB0001B6813F0010303D0EDB285F31188F8BDC4
:10BAC000D0F894210446D0F898110A4302F02102DC
:10BAD000212AF1D0D0E90901884253D043D8226904
:10BAE0001846531A9BB2D4F894710022A062202FFA
:10BAF00084F8A421E0D1A2695118DDD0B3FA83F60D
:10BB00007609002BD8D094F89021012AD4D00122B4
:10BB1000D4F88801A4F8723184F890212122C4F865
:10BB20009C61C4F86C11A4F87031C4F89421E8B198
:10BB3000DFF858C0D4F82021C0F83CC0DFF850C06E
:10BB400028320665C0F840C0DFF848C0C0F84CC0D5
:10BB500030F062FE50B1102384F89061C4F89C313B
:10BB6000C4F89471A8E7431A9BB2BCE7D4F820311B
:10BB700000224021196284F890219A6842F08002E4
:10BB80009A6099E7012384F8A43195E7B18F0308FF
:10BB9000D58F03080D90030838B5D0F8203104463E
:10BBA000DA69950614D5586AE36AC0B2002B66D0EC
:10BBB000216B9847D4F820311A6822F480721A60F9
:10BBC0009A6822F001029A609A6942F008029A612A
:10BBD000DA69D00701D501221A62DA69910701D525
:10BBE00002221A62DA69520701D504221A62DA695E
:10BBF000150701D508221A62DA6950060DD4D4F867
:10BC000000211AB3DA69D20606D5626B12B19047E9
:10BC1000D4F8203110221A6238BD40221A6294F8FA
:10BC2000BD51002D37D0D4F8003113B32046FFF7B3
:10BC300037FF94F8A4311BB194F8BD51002D3DD0CD
:10BC4000D4F80021D4F82031002ADBD1DA691106BA
:10BC5000D8D5D4E909128A422BD0A169895C013276
:10BC6000C9B299622169B2FBF1F001FB1022A26214
:10BC7000C8E7D4F82031DA691106C3D5E9E7E369EA
:10BC80006269D054E369E2680133B3FBF2F102FB6D
:10BC90001133E3618EE794F8B2010BF06BFA0123E4
:10BCA00084F8BD310028BED02A462021FEF762FA72
:10BCB000B9E71A6822F080021A60A3E794F8B2018B
:10BCC0000BF058FA012384F8BD310028B8D02A4679
:10BCD0002021FEF74FFAB3E72DE9F04FBF4C83B0B8
:10BCE00004EB8004D4F82C4C002C5DD0D4F8AC517B
:10BCF0001F46DFF804B390466B680646B84AC4F89E
:10BD0000A0316B6BDFF8F49263612B6BA160A361D0
:10BD10006B8FE3602B8FC4F8A82123610BF51C63A4
:10BD200023602A7809EB420393F9DC0A530001935C
:10BD3000C3B2012B7AD9D4F8003183B1A9490020CC
:10BD40009C464B68013024319C4500F0EB80102864
:10BD5000F7D1A54B93F87410002900F03381D4F883
:10BD6000FC00002840F0B7806B68C4F8203195F8DB
:10BD70002800002840F0C78094F8B2010BF0FAF9CF
:10BD800002213A0794F8B09184F8BD1110D508B398
:10BD90000B2201363A21C671827194F8B321FEF765
:10BDA000E9F9D4F8FC3053B3204603B0BDE8F08F76
:10BDB00018F0020F0ED068B10B228271721CC27192
:10BDC00017F0010240F005810123202184F8BD31E4
:10BDD000FEF7D0F948460BF0CDF90028E1D018F075
:10BDE000010FDED00C2201360221C671827194F857
:10BDF000B121FEF7BFF9D4F8FC30002BD4D195F86F
:10BE00002C1095F92A00890935F0B2FC95F92A30F1
:10BE100095F82A20002BC7DB02F01F0201215B09E5
:10BE2000724801FA02F240F82320BDE708234FF0E0
:10BE30000C0A0BF5AA6C1AFB003A0023E6461946D9
:10BE40000131172962D01EF81C3F042BF8D19EF84F
:10BE500001309342F4D15EF80A30002BF0D08E46C8
:10BE60000199C4F800318944CEEBCE0199F9DDEA9D
:10BE7000890000EB4009BEF1FF3F01EB8901594405
:10BE8000D1F85C15C4F808113FF458AF0021013116
:10BE900017293FF452AF1CF81CEFBEF1050FF6D185
:10BEA0009CF801E09645F2D15CF80AE0BEF1000F83
:10BEB000EDD0C1EBC101C4F8FCE000EB400089000B
:10BEC00001EB80008344DBF85C15C4F80411002BFF
:10BED0007FF434AF7046434A002351680133243263
:10BEE00081424DD0102BF8D13F4B93F87420002A9B
:10BEF0007FF43AAF2A78013283F875200C2283F858
:10BF000074206B6831E735F063FC35E7019B994499
:10BF1000D4F8003199F9DD1A0131B7D1002B7FF443
:10BF20000DAF1CE75FFA80F92F4B013209F1FF31A9
:10BF3000D2B201EBC10103EB810393F89810002901
:10BF40007FF40DAF83F899202948DA6F82420CBF45
:10BF5000952096200B2283F8982035F039FC234653
:10BF6000484695F82B202349FEF7A2F86B68D4F8D1
:10BF7000FC002833C4F8183100283FF4F5AEAAE7D6
:10BF8000DBB2194A013B03EBC30302EB83032A78BC
:10BF900093F898100132D2B200297FF4E5AED86F41
:10BFA00083F89920124A90420CBF952096200C22CB
:10BFB00083F8982035F00CFC6B6803F12402C4F878
:10BFC0001C21D2E6013283F875200B2283F87420FD
:10BFD000C5E694F8B321FEF7CDF8FBE6C0120020C9
:10BFE00091B200087C0001200000012000E100E087
:10BFF000006002409D830008187C04084815012059
:10C00000BFF34F8F0549064BCA6802F4E062134341
:10C01000CB60BFF34F8F00BFFDE700BF00ED00E036
:10C020000400FA0508B572B6FFF7EAFF30B583B031
:10C03000FFF776F90320FFF767F901284BD0324C60
:10C040000025324A0523C4F89850C4F89C50C4F81F
:10C05000A020C4F89430BFF34F8FBFF36F8F4FF61B
:10C06000FF01E2682A4B0A4013432A4AE360536FF8
:10C0700030F0F0FD284B2949A3FB0023D4F8FC2025
:10C080009B0C42F08072C4F8FC20C1F8F433D1F864
:10C0900094322349234AA1FB031323499B09C2F885
:10C0A000B01F5560013B1168B3F1807F41F0010181
:10C0B000116008D24FF0E022F0215361072384F889
:10C0C0002310956113614FF0E022136943F00403DC
:10C0D000136103B030BD02210320FFF71BF90D4BA4
:10C0E00012485A6C124942F480425A645B6C03F461
:10C0F00080430193019A02680B68026083F3088809
:10C100004B689847FEE700BF00ED00E01B0000060B
:10C110000005FA050038024083DE1B434815012064
:10C12000D34D6210001000E055CEACC50038014080
:10C130000000F01F830AA3F58013522B52D8F0B5EC
:10C1400004466A4885B0034493F8F4030D2847D8A1
:10C15000674D860105EB8013D3F8EC7AA7423FD0F8
:10C160000139C3F8EC4A89B2C3F8F81AD5F8941229
:10C17000B1FBF2F2013AC3F8F02A0022C3F8FC2A1C
:10C18000C3F8F42AC3F8002B93F8292B02F0FF011F
:10C190004AB358490223AF1901EB8011204687F8B2
:10C1A000293B043130F0F0FF012387F8293B524B43
:10C1B0009C421BD0B4F1804F18D0A3F57C439C4225
:10C1C00075D003F580639C4271D04C4A03F57C43E3
:10C1D0009C4218BF944249D003F570539C4245D00D
:10C1E00005B0F0BD704783F8281BD2E700234FF459
:10C1F0008051AA19CDE9001392F8281B0129CDE935
:10C200000233EDD00221D2F8EC0A012482F8291B76
:10C210003B4987683940816082F8294B82F8283B86
:10C220000023AA19CDE90033029392F8283B012B91
:10C23000D6D0D2F8EC3A02212F4882F8291B83424B
:10C240005A6899684ED000F5806083424AD022F047
:10C25000700221F08001354401205A60996000236A
:10C2600085F8290B85F8283B05B0F0BD00214FF477
:10C270008053CDE90031AB1993F8282B012ACDE981
:10C280000211ADD0D3F8EC0A022283F8292B1C4A04
:10C2900087683A4082601B4A83F8281B0121944238
:10C2A00083F8291BBCD0154B9C4299D1B8E70022DA
:10C2B0004FF48051AB19CDE9001293F8281B0129E6
:10C2C000CDE902228CD00221D3F8EC0A012483F8B4
:10C2D000291B0B4987683940816083F8294B83F813
:10C2E000282B9DE722F47002B1E700BF187C0408F8
:10C2F000481501203420012000000140000C0040BE
:10C300008800FEFF000401402DE9F04F0646086852
:10C3100083B0850ABDF83040A5F580159DF83490AE
:10C3200001940C46522D59D8DFF82883454495F8DE
:10C33000F4530D2D52D81946FFF7FCFE216862799F
:10C34000B9F1000F4DD18B0A94F807B0A3F5801313
:10C35000DC46522B4ED9BC4B1CF0020F00F0CD80B6
:10C3600002F01F0703EB8512AD01D2F8EC0A04229C
:10C37000BA40076A27EA02070762076A3A4302627D
:10C38000426C42F400424264B04A87683A40062A4E
:10C3900006D0B2F5803F03D0026842F0010202608D
:10C3A0005A19022082F8290BD2F8EC0AA74A8768AA
:10C3B0003A40062A06D0B2F5803F03D0026842F028
:10C3C000010202602B44012283F8292B01F134027F
:10C3D000637971600021D0183060D15003B0BDE89E
:10C3E000F08F8B0A94F807C0A3F580138CF0010B33
:10C3F000522BB0D8434493F8F483934BB8F10D0F0C
:10C40000AAD84FEA4B0003EB881E4FEACB0B00F093
:10C4100002000BF0080A4FEA881B9EF8288BB8F13F
:10C42000010F99D04FF001088EF8288B4FF00208C9
:10C430008EF8298B142A53D8DFE812F08C015200B1
:10C440005200520051015200520052001401520099
:10C4500052005200C70052005200520089005200A0
:10C4600052005200150003EB0B0EDFF8EC81DFF8F1
:10C47000E0A1DEF8ECEADEF82090D64529F4801938
:10C48000CEF82090DEF8209029F4001949EA0050F7
:10C49000DEF80490DEF8547007EA080848F4C04853
:10C4A00000F096810AF5806AD64500F09181019FDF
:10C4B000CEF80490CEF85480CEF85C70CEF8200010
:10C4C000DEF8540040F40060CEF85400DEF854006A
:10C4D00020F48060CEF85400DEF85400CEF854000A
:10C4E00003EB0B0001271CF0020F80F8297B4FF0B3
:10C4F000000780F8287B7FF433AF03EB851001271A
:10C5000002F01F02AD01D0F8EC0A07FA02F2076A46
:10C5100027EA02070762076A3A4302624C4A9042DE
:10C520000AD002F58062904206D08768474A3A40B6
:10C53000062A7FF42EAF33E7426C42F40042426495
:10C54000424A87683A40062A7FF423AF28E703EB84
:10C550000B0EDFF80881DFF8F8A0DEF8ECEADEF871
:10C560002090D64529F48039CEF82090DEF820902E
:10C5700029F4003949EA0040DEF80490DEF85470EE
:10C5800007EA080848F0600800F01F810AF5806A91
:10C59000D64500F01A81019FCEF80490CEF8548061
:10C5A000CEF85870CEF82000DEF8540040F00800B5
:10C5B000CEF85400DEF8540020F00400CEF8540009
:10C5C000DEF85400CEF854008AE703EB0B0EDFF8D8
:10C5D0009080DFF87CA0DEF8ECEADEF82090D6450B
:10C5E00029F48059CEF82090DEF8209029F40059E3
:10C5F00049EA0030DEF80490DEF81C7007EA08080B
:10C6000048F4C04800F0F0800AF5806AD64500F092
:10C61000EB80019FCEF80490CEF81C80CEF84070DD
:10C62000CEF82000DEF81C0040F40060CEF81C00BC
:10C63000DEF81C0020F48060CEF81C00DEF81C0040
:10C64000CEF81C004CE700BF481501200700010090
:10C6500000000140187C0408FF8FFFFE8FFFFEFFE3
:10C66000FF8CFFFE03EB0B0EDFF8AC81DEF8ECEA8B
:10C67000DEF8209029F48079CEF82090DEF8209022
:10C6800029F4007949EA0020DEF80490DEF81C70F5
:10C6900007EA08085F4FBE4548F0600800F09B803D
:10C6A00007F58067BE4500F09680019FCEF80490A4
:10C6B000CEF81C80CEF83C70CEF82000DEF81C00CE
:10C6C00040F00800CEF81C00DEF81C0020F004004A
:10C6D000CEF81C00DEF81C00CEF81C0000E703EBCF
:10C6E0000B0EDFF83881DEF8ECEADEF8209029F056
:10C6F0001009CEF82090DEF8209029F0200949EAB0
:10C700000010DEF80490DEF8187007EA0808414FC0
:10C71000BE4548F4C04873D007F58067BE456FD06A
:10C72000019FCEF80490CEF81880CEF83870CEF87D
:10C730002000DEF8180040F40060CEF81800DEF8A3
:10C74000180020F48060CEF81800DEF81800CEF84B
:10C750001800C5E603EB0B0EDFF8BC80DEF8ECEA50
:10C76000DEF8209029F00109CEF82090DEF8209024
:10C7700029F0020940EA0900DEF80490DEF818709A
:10C7800007EA0808234FBE4548F060082FD007F598
:10C790008067BE452BD0019FCEF80490CEF818805C
:10C7A000CEF83470CEF82000DEF8180040F0080013
:10C7B000CEF81800DEF8180020F00400CEF81800BB
:10C7C000DEF81800CEF818008AE649F48039E2E66F
:10C7D00049F480296BE620F4006049F4405940EAAE
:10C7E0000A2020F4806060E749F4804911E720F0D6
:10C7F000080049F440794AEA000020F00400CAE742
:10C8000020F0800049F4406940EA0A1020F040001E
:10C8100086E700BF000001408CFFFEFFFF8CFFFE9B
:10C8200003689B0AA3F58013522B56D870B53B4C76
:10C83000234493F8F4C3BCF10D0F4DD8407985081B
:10C8400000294ED00CEB8C034FF0020E84083448C4
:10C850000CEB43030EFA04F42B4400EB8C15D5F8D3
:10C86000EC5A00EB830EEE68CEF804103443CEF899
:10C870001420EC604FEA8C14EFF3118E502383F3F5
:10C8800012882C2303FB0CF3C258C11832B3131DBA
:10C890004A622C22234D02FB0CF21544143202444E
:10C8A00052F8041B19B1196052F8043C0433954244
:10C8B000F6D100225FFA8EFE1A608EF311882C23C7
:10C8C00003FB0C0C2044DCF82430D0F8EC2A03B332
:10C8D000D36843F00103D36070BD70472433034431
:10C8E000D7E70CEB8C030E482C460CEB43032B4490
:10C8F00000EB8C15D5F8EC6A0225A540F46824EA13
:10C900000504F46000EB8304616062614FEA8C14FB
:10C91000B2E7D36823F00103D36070BD187C04082C
:10C92000481501206C15012001490248FCF7DCB9CB
:10C93000481501200000014010B5064C064821466C
:10C94000FCF7D2F904F5C6710448BDE81040FCF7C5
:10C95000CBB900BF48150120000001400044014050
:10C9600002494FF08040FCF7BFB900BF74150120A9
:10C9700001490248FCF7B8B9A015012000040040A5
:10C9800001490248FCF7B0B9CC150120000800406D
:10C9900001490248FCF7A8B9F8150120000C004035
:10C9A0002DE9F843194E3569F3681D4010D04FF05A
:10C9B0000047DFF85C80B5FA85F227FA02F31F2AF8
:10C9C0006FEA030305EA0305336103D0002DF2D1BA
:10C9D000BDE8F883D8F80431A3B103F1FF3900238F
:10C9E0001FFA89F9C8F80431D8F80041002CEDD0BD
:10C9F00023682046494698476468002CF8D1002DEA
:10CA0000D9D1E5E7F16A1FFA81F9EDE7001000409E
:10CA10004815012001490248FCF766B97C1601203F
:10CA20000004014010B5064C064804F59A71FCF765
:10CA30005BF904F504710448BDE81040FCF754B9F3
:10CA40004815012000040140001C00400149024833
:10CA5000FCF74AB9A81601200040014001490248EC
:10CA6000FCF742B900170120004801400149024883
:10CA7000FCF73AB92C170120001800402DE9F047C7
:10CA80004FF425728EB0002174483AF009FF744BC0
:10CA9000744F4FF080415A6C07F12004B94642F0C0
:10CAA000010207F51E65A246DFF8C4815A645A6C7C
:10CAB0006D4E02F001020092009A1A6C42F00102DF
:10CAC0001A641A6C02F001020192019A1A6C42F087
:10CAD00002021A641A6C02F002020292029A1A6CA2
:10CAE00042F004021A641A6C02F004020392039AE0
:10CAF0001A6C42F008021A641A6C02F008020492DE
:10CB0000049A1A6C42F010021A641A6C02F01002B5
:10CB10000592059A1A6C42F020021A641A6C02F00F
:10CB200020020692069A5A6C42F002025A645A6C2B
:10CB300002F002020792079A5A6C42F480325A6459
:10CB40005A6C02F480320892089A5A6C42F400320D
:10CB50005A645A6C02F400320992099A5A6C42F4EF
:10CB600080225A645A6C02F480220A920A9A1A6C41
:10CB700042F040021A641A6C02F040020B920B9AC7
:10CB80001A6C42F080021A641A6C02F080020C9255
:10CB90000C9A1A6C42F480721A641B6C03F4807352
:10CBA0000D930D9B4246002301E056F833208A4244
:10CBB0000CD001330E2BF8D10AF1200A002034F0FA
:10CBC00007FE55450DD05AF8201CEBE7274A0AF11D
:10CBD000200A02EBC30393F8BC0234F0F9FD55457B
:10CBE000F1D107F51C6709F120094F4512D099F8DA
:10CBF0000630002BF7D099F804000AF0BBFA0221A6
:10CC00000028F0D099F8082009F12009FDF7B2FAC0
:10CC10004F45ECD14FF08041154F134E3A4600235B
:10CC200001E056F833208A420BD001330E2BF8D1A5
:10CC30002034002034F0CCFDAC420CD054F8201C41
:10CC4000ECE70A4A203402EBC30393F8BC0234F049
:10CC5000BFFDAC42F2D10EB0BDE8F087481501200F
:10CC60000038024008860408C88F0408108D0408A4
:10CC700000000140F0B5A24CA5B0E368022B00F023
:10CC80003A82A048A04AA149121A3AF0E1FDA04810
:10CC9000A04AA149121A3AF0DBFDA368012B00F269
:10CCA000C28003EB43039D4A9D4D02EB430032F8E3
:10CCB000132041888388C5E9B921C5F8EC32994C25
:10CCC000994E9A4BB2FBF1F2994901FB02F2002115
:10CCD000C6F89422D4F8882042F47002C4F8882060
:10CCE0001A6842F001021A609960924A186802407C
:10CCF00091481A60C0F30807904A5A601A6822F4F3
:10CD000080221A60D96007B1FEE78D49A0604FF616
:10CD1000FF000A688B4B42F400720A60E26802402E
:10CD20001343E36035F04AF8BFF34F8FBFF36F8FC3
:10CD3000C4F85072BFF34F8FBFF36F8F636943F432
:10CD400000336361BFF34F8FBFF36F8FC4F88470FC
:10CD5000BFF34F8FD4F8803043F6E07CC3F3C90EA5
:10CD6000C3F34E33580100EA0C01734641EA837263
:10CD7000013B5F1CC4F86022F8D1203810F1200F6D
:10CD8000F1D1BFF34F8F636943F480336361BFF325
:10CD90004F8FBFF36F8F6A49644B0A6842F4807209
:10CDA0000A60196C684A41F080511964196C01F0ED
:10CDB000805102910299116841F44041116012685A
:10CDC000D5F8E40202F44042D5F8E842D5F8EC1276
:10CDD0000192019A9A6802F00C02042A00F08D80F8
:10CDE0009A6802F00C02082A00F083804F4A136808
:10CDF00043F480331360D6F8AC7E04E0D6F8AC3E42
:10CE0000DB1B642B74D813689B03F7D5474A9368E0
:10CE100003F00C03082B6BD0136823F080731360AE
:10CE2000D6F8AC7E08E03E4DD5E9B92147E7D6F803
:10CE3000AC3EDB1B022B5BD813689B01F7D40B06BF
:10CE4000640843EA8013611E43EA01433F491943E2
:10CE5000364B5160116841F080711160D6F8AC1EFC
:10CE600004E0D6F8AC2E521A022A41D81A68920170
:10CE7000F7D5196C344A41F0805119641B6C03F0EA
:10CE800080530393039B136843F480331360D6F8F5
:10CE9000AC1E06E0D6F8AC3E5B1AB3F57A7F00F222
:10CEA000CB805368DF03F5D51368274943F400337B
:10CEB0001360D6F8AC2E06E0D6F8AC3E9B1AB3F55C
:10CEC0007A7F00F2B9804B689C03F5D54FF40012CD
:10CED0004FF0006304A804924FF4C072219307231B
:10CEE000CDE9082303230A932FF0E8FE80B3FEE781
:10CEF000FEE75B685A027FF579AF0C4B1B6885E74C
:10CF00005028004000000000D0350000386D0508B2
:10CF100000000020C8010020D8B905083890040896
:10CF20000000012000ED00E048150120003802401B
:10CF300040420F00FFFFF6FE000000081030002402
:10CF4000003C02400003FA05007000400800402049
:10CF50006C4A136803F00F03062B0AD8136823F0FA
:10CF60000F0343F007031360136803F00F03072B4D
:10CF700063D1654B9A6842F4E0529A609A6842F431
:10CF800060429A609A6822F0F0029A601A689001F2
:10CF900053D59A6841F2883122F0030242F002022E
:10CFA0009A60D6F8AC0E04E0D6F8AC2E121A8A427B
:10CFB00043D89A6802F00C02082AF5D1514A136846
:10CFC00019070AD5136823F00F0343F00703136012
:10CFD000136803F00F03072B2FD14B4C4B4FA36863
:10CFE00023F4E05343F4A053A360A36823F4604305
:10CFF00043F40043A3602FF02DFEA368C3F3031393
:10D000003B4493F83433D840C6F8940234F0D6FE4B
:10D01000002304A8CDE91333CDE91533CDE9173347
:10D02000CDE91933CDE91B33CDE91D33384B0493DA
:10D030002FF044FE10B1FEE7FEE7FEE702234FF0BB
:10D04000007204A8CDE90633D823CDE904230123D7
:10D050000B932FF033FE00B1FEE7D4F88C3023F0B1
:10D060008073C4F88C30D4F88C3043F08073C4F8EB
:10D070008C30A36803F00C03042B36D0082B18D097
:10D08000244BC6F89432204AD5E9B931B3FBF1F309
:10D090009168D6F89422C1F303110F4497F8341322
:10D0A000CA401D4901FB03F3C6F89422934220D0E5
:10D0B000FEE76368626813F4800F636802F03F0262
:10D0C00018BF1649C3F3881308BF1249B1FBF2F227
:10D0D00002FB03F30C4A5268C2F3014201325200D0
:10D0E000B3FBF2F3C6F89432CDE70C4BC6F894329A
:10D0F000C9E725B0F0BD00210320FEF70BF9FEF7CC
:10D100007FFF00BF003C024000380240108D040841
:10D11000C0FF03000024F40040420F0000127A0018
:10D120000548D0F8A43223B1DB6A13B100F52970A9
:10D1300018470248704700BF481501205490040862
:10D1400010B5174CD4F8B03E1B883BB9002384F8C7
:10D15000BC3E84F89C32C4F8983210BDD4F8B42E8A
:10D16000002AF3DD012A08D0D4F8B83E59880123FB
:10D17000A4F8BE1E84F8C03EE8E7D4F8B81E8A883A
:10D1800049880132521A9A42F1D10022D4F8A432CD
:10D1900004F529701B69C4F8D0229847D6E700BF70
