:020000040800F2
:10000000F8FF01201DBF0808B9BF0808953305088F
:10001000B9BF0808B9BF0808B9BF08080000000048
:10002000000000000000000000000000B9BF080848
:10003000B9BF080800000000B9BF0808910C050806
:10004000B9BF0808B9BF0808B9BF0808B9BF080890
:10005000B9BF0808B9BF0808092704081127040810
:10006000192704082127040829270408510600003D
:1000700065060000790600008D060000A10600005C
:10008000B5060000C9060000B9BF0808B9BF0808D6
:10009000B9BF0808B9BF0808B9BF08083127040864
:1000A000B9BF0808F93D0408B9BF0808E93D0408CC
:1000B000093E0408193E0408293E040835230408B3
:1000C00029230408692304085D230408B9BF08082C
:1000D000B9BF08088D0D0000D90E000025100000E2
:1000E00039270408B9BF080800000000F53E0408DD
:1000F000CD3E0408053F0408BD3E0408DD060000AF
:10010000B9BF0808B9BF0808393E0408B9BF0808D4
:1001100071110000BD120000493E040801080808E2
:10012000F106000005070000190700002D07000078
:1001300041070000B9BF0808B9BF0808B9BF0808DF
:1001400000000000000000000000000000000000AF
:1001500055070000690700007D0700000914000032
:100160009D23040891230408B9BF0808B9BF0808F3
:10017000B9BF0808B9BF0808B9BF080800000000E7
:10018000B9BF0808B9BF080855150000A11600003E
:10019000B9BF0808B9BF0808B9BF0808B9BF08083F
:1001A000B9BF0808B9BF0808B9BF0808B9BF08082F
:1001B000B9BF0808B9BF0808B9BF0808D1230408A7
:1001C000C5230408B9BF0808B9BF0808B9BF0808A3
:1001D000B9BF080871F60708B9BF0808B9BF080811
:1001E000B9BF0808B9BF0808B9BF0808B9BF0808EF
:1001F000B9BF0808B9BF0808B9BF0808B9BF0808DF
:10020000B9BF0808B9BF0808B9BF0808B9BF0808CE
:10021000153F0408253F0408353F0408B9BF080806
:10022000B9BF0808B9BF0808B9BF08080000000036
:10023000B9BF0808B9BF080800000000B9BF080826
:10024000B9BF0808B9BF0808B9BF0808B9BF08088E
:10025000B9BF0808B9BF0808B9BF0808B9BF08087E
:10026000B9BF0808B9BF0808B9BF0808B9BF08086E
:10027000B9BF0808B9BF0808B9BF080800000000E6
:10028000B9BF080800000000B9BF0808000000005E
:0802900000000000B9BF0808DE
:020000040804EE
:100000004368426D30B49A61EFF31182502383F359
:1000100012884168D2B2856C0B68046D23EA05032F
:1000200023430B6082F31188436981681A68096869
:1000300022F00102D0E908541A60826A1D605C61F6
:100040005A60D0E90B429C60DA600023B0F86C2063
:1000500030BCCA620377704730B5FAB18E464FEABA
:10006000014C034600F1C005002419680C3353F815
:10007000042C43F8084C41EA0C0142EA0E02AB4260
:1000800043F80C1C43F8042CEFD1D0F8C03043EAFD
:100090000E03C0E93144C0F8C03030BD4FEA014E14
:1000A0008C46DEE710B40C4C6368002B11DD002099
:1000B00004F1080C0146DCF8AC3003F1C0025960D1
:1000C0000C339342FBD1013063680CF5867C83428C
:1000D000F1DC5DF8044B704704000020F0B5474C9C
:1000E00004EB401292F8543403B9F0BD4FF4B47CE1
:1000F000434B00264FEA401E0CFB004C9CF83A553F
:100100008CF83A6582F83A541D785A7895420DD0A9
:1001100002EB420C560003EBCC0C9CF804C00CF133
:10012000FF37012F5DD9BCF1030F55D004EB0E0052
:10013000A0F83814EFF31183902282F3128890F81C
:100140003A24DBB2B0F8381442EA4102002192B2FC
:1001500080F83A1483F311881309247883EA122370
:1001600083EA0201DCB11301C943D0F85024012411
:10017000D0F83C049BB201F00F01D2F8AC208440CF
:100180000B4302F1C000590013F4004F8BB202D1AF
:100190005168214351600C328242F4D1F0BD130109
:1001A000D0F83C44D0F8502401F00F0104F11000C5
:1001B0009BB20124D2F8AC200B43844002F1C00072
:1001C000590013F4004F8BB202D1516821435160A2
:1001D0000C329042F4D1F0BD571C07F00307AF4238
:1001E000A4D0324403EBC2030344597C00299DD0C0
:1001F00004EB0E03012283F83A2497E70400002061
:10020000B8160024704700BF024B03EB401090F873
:100210005504704704000020704700BF0A4810F8DA
:100220004C1C81B101EB410100234438490010B45A
:100230001C4650F82320063302B114608B42F8D1DB
:100240005DF8044B70477047FC1000200A4810F816
:100250004C1C81B101EB410100234438490010B42A
:100260001C4650F82320063302B114609942F8D19D
:100270005DF8044B70477047FC1000200120704768
:10028000034B00EB400003EBC00010F8330C704749
:10029000FC1000202DE9F0431D4C14F84C3CABB38E
:1002A0000022A4F144034FF0500E1A4E4FF02C0CD4
:1002B000194F154607E053F8181B01320D6014F86A
:1002C0004C1C914222DD197C0029F4D05968FE2093
:1002D0004FEA9128A8F58018B8F1520F98BF17F887
:1002E0000800EFF311888EF31288D1F824900CFBEC
:1002F00000605FFA88F809F10109C0F88C9048693C
:1003000040F00100486188F31188D4E7BDE8F0832C
:10031000FC100020B816002448D6080807EE900A02
:10032000B8EE670A704700BFBCEEC00A10EE103A84
:1003300098B270472DE9F04300228469A44B83B042
:10034000A44804F1B40701921E68A34AD4F8B4305B
:10035000D4F80C51934218BF8342D5F8008008BFEF
:100360000120296818BF00204FD01832DFF874C26E
:10037000634518BF93420CF1180C0CBF01220022F8
:10038000634508BF42F001020CF1180C634508BF39
:1003900042F001020CF1180C634508BF42F0010263
:1003A0000CF1180C634508BF42F001020CF5567CB5
:1003B000634508BF42F001020CF1180C634508BF09
:1003C00042F001020CF1180C634508BF42F0010233
:1003D0000CF1180C634508BF42F001020CF1180C37
:1003E000634508BF42F001020CF1180C634508BFD9
:1003F00042F001020CF1180C634508BF42F0010203
:100400001AB9764A934240F07082D4F8101108224B
:1004100001F01F0C02FA0CF218EA020F40F097816B
:1004200028FA0CF2D2070CD55A69120609D5012216
:1004300002FA0CF2AA60D4F8082142F00202C4F8D1
:1004400008214FF0040E0EFA0CFE18EA0E0F5CD0D5
:1004500000284FD1624ADFF88C914B4518BF934278
:1004600009F118090CBF012200224B4508BF42F0D8
:10047000010209F118094B4508BF42F0010209F1D8
:1004800018094B4508BF42F0010209F118094B4514
:1004900008BF42F0010209F556794B4508BF42F00A
:1004A000010209F118094B4508BF42F0010209F1A8
:1004B00018094B4508BF42F0010209F118094B45E4
:1004C00008BF42F0010209F118094B4508BF42F08C
:1004D000010209F118094B4508BF42F0010209F178
:1004E00018094B4508BF42F001021AB93B4A934232
:1004F00040F038821A68920707D5C5F808E0D4F8AA
:10050000082142F00402C4F80821102202FA0CFC6F
:1005100018EA0C0F6CD0002845D1324A304883428B
:1005200018BF934200F130000CBF01220022834229
:1005300008BF42F001021830834208BF42F00102B6
:100540001830834208BF42F001021830834208BFCE
:1005500042F0010200F55670834208BF42F00102EA
:100560001830834208BF42F001021830834208BFAE
:1005700042F001021830834208BF42F001021830F5
:10058000834208BF42F001021830834208BF42F0A4
:1005900001021830834208BF42F001021AB90F4A23
:1005A000934240F0E7811A68120721D5C5F808C0C8
:1005B0001A68520300F16A811A68D20503D41A68D6
:1005C00022F008021A60D4F8F4308BB10CE000BFBE
:1005D000000000241000024028000240B80402403D
:1005E000400002405800024038469847D4F81011A5
:1005F00001F01F012020884018EA000F74D0D4F8C1
:10060000B420AE4BDFF8C4C2624518BF9A420CF169
:10061000180C0CBF01230023624508BF43F00103FF
:100620000CF1180C624508BF43F001030CF1180CE3
:10063000624508BF43F001030CF1180C624508BF86
:1006400043F001030CF1180C624508BF43F00103AD
:100650000CF1180C624508BF43F001030CF5567C01
:10066000624508BF43F001030CF1180C624508BF56
:1006700043F001030CF1180C624508BF43F001037D
:100680000CF1180C624508BF43F001030CF1180C83
:10069000624508BF43F001030CF1180C624508BF26
:1006A00043F001030CF1180C624508BF43F001034D
:1006B0001BB9834B9A4240F074811368DB0613D553
:1006C000A86094F8E930042B136800F0BE8013F49E
:1006D000802F136800F0E4801D0340F1FB80D4F804
:1006E000F0300BB138469847D4F80831002B00F0B1
:1006F000CA80D4F80831D8071FD5D4F8B420042113
:1007000084F8E910136823F0010313606D4BA3FB19
:100710000636B60A02E01368D90704D5019B0133F7
:100720009E420193F7D2002384F8E8301368DB0778
:100730004CBF0323012384F8E930D4F80031002BA7
:1007400000F0A180384603B0BDE8F0431847D3F865
:1007500000E01EF0040F0CD0D3F800E02EF0040EE1
:10076000C3F800E0AA60D4F8082142F00102C4F8FE
:10077000082128FA0CF2D2077FF563AE524ADFF85F
:1007800050E1734518BF93420EF1300E0CBF0122A9
:100790000022734508BF42F001020EF1180E7345A6
:1007A00008BF42F001020EF1180E734508BF42F077
:1007B00001020EF1180E734508BF42F001020EF55A
:1007C000567E734508BF42F001020EF1180E7345C4
:1007D00008BF42F001020EF1180E734508BF42F047
:1007E00001020EF1180E734508BF42F001020EF12E
:1007F000180E734508BF42F001020EF1180E734542
:1008000008BF42F001020EF1180E734508BF42F016
:1008100001020EF1180E734508BF42F00102002AD2
:100820007FF402AE00287FF4FFAD1A68042202FABA
:100830000CF212EA080F40F09580102202FA0CFC2C
:1008400018EA0C0F7FF469AED2E623F016031360AA
:10085000536923F080035361D4F8F430002B3FD068
:10086000136823F0080313603F230020012203FADA
:1008700001F1D4F80431A96084F8E80084F8E92093
:10088000002B7FF45FAF03B0BDE8F0831B68180353
:100890007FF599AED4F8FC30002B7FF4A5AEA7E627
:1008A00013F480737FF41BAF116821F01001116005
:1008B000012284F8E83084F8E92010E710000240B3
:1008C000B8040240B5814E1B580002402800024087
:1008D00040000240D4F8F830002B7FF403AF03E768
:1008E000D4F8FC30002BBBD1BEE7504A50488342BD
:1008F00018BF934200F114000CBF01220022834272
:1009000008BF42F001021430834208BF42F00102E6
:100910001430834208BF42F001021430834208BF02
:1009200042F001021430834208BF42F0010212B9C2
:10093000404A9342A7D1D4F8100104261A6800F067
:100940001F00864031421AD012F0040F17D0100455
:100950006E604CD5D10350D4D4F8FC30002B7FF41A
:10096000F1AE90E71A68102202FA0CFC18EA0C0F9C
:100970003FF43EAE1A6850077FF53AAE16E60226FF
:100980008640314212D012F0020F0FD06E60150473
:1009900039D5D00343D4D4F8F830002B7FF4D2AE4D
:1009A00071E713689B077FF59FAE89E608268640AE
:1009B0000E423FF468AF11077FF565AF1A6800215A
:1009C00022F00E021A600123D4F8002103FA00F08D
:1009D0006860C4F8083184F8E81084F8E930002A27
:1009E0003FF451AF384603B0BDE8F04310479206DC
:1009F00003D41A6822F004021A60D4F8F430002BF1
:100A00007FF4A0AE3FE712F0200208D1196821F070
:100A10000A011960012384F8E82084F8E930D4F849
:100A2000F030002B7FF48EAE2DE700BF0854025843
:100A30001C540258945402580346012200205A774D
:100A4000704700BF08B5D0E90B2183690B4483616F
:100A50000AB108469047002008BD00BF436A02461D
:100A60001B681B6A5B685B7813F0010008BF507756
:100A7000704700BFC2628161704700BF704700BF0E
:100A800004307047043070470C4B93F8FC22D3F8C5
:100A9000F81202440844D2B2C3F8F80283F8FC22E8
:100AA00093F8FC22120605D593F8FC2282F080020E
:100AB00083F8FC22024B01221A717047B8160024F9
:100AC000000000242DE9F84F154FD7F80053ED0A28
:100AD00020D00026DFF84CA007F54179B046AC19CC
:100AE000D7F80413102352466410D1F828B04846B2
:100AF000C7F83083E102D8470F280BDD094B03F11B
:100B0000100253F8041B013107D19342F9D1254655
:100B1000B542E4DCE802BDE8F88F661CF8E700BFE8
:100B2000B816002440CD0024184BD3F83813D3F85E
:100B30003C238A1A322A15D8D3F850238A4200D38C
:100B40007047D3F84023E2B110683231928810B474
:100B50004469C3F8501322425DF8044B18BF1204D5
:100B600082617047D3F840233AB193F84C0311687F
:100B7000C007928848BF12048A610022C3F850233C
:100B800070473231C3F85013704700BFB8160024C5
:100B9000064AD2F840333BB192F84C131A68C907A1
:100BA0009B8848BF1B04936100207047B81600243F
:100BB000044B4FF4007C0020D3F86033A2F800C04F
:100BC0000B607047B8160024002070470120704762
:100BD00001207047002070472DE9F0411C4D10F0B6
:100BE0007BF80026074669684FF48678002918DDEF
:100BF00000231C4608FB0352013392F805218B4267
:100C000044EA0204F6D110F067F8C01BB0F5FA6FA1
:100C1000CCBF002304F00103B3B169681E4600296C
:100C2000E6DC10F059F826B10A4B93F89023532ACA
:100C300002D03046BDE8F081B3F898233046013247
:100C4000A3F89823BDE8F0813443E6B2EBE700BF98
:100C500004000020B81600242DE9F04FA94D8DB0F6
:100C60002B7802931BB901200DB0BDE8F08F6B68A3
:100C7000A54A002BD2F8386318DD05F108040020DE
:100C8000A249D4F8F430BFF34F8F03F59072C1F846
:100C90005C3220339342FAD1BFF34F8FBFF36F8F93
:100CA00001306B6804F586749842EADB9848182195
:100CB000DFF874A2C36F00F5C4770693954BA3FBCE
:100CC0000623954E5B09A6FB0326F60806EB86066F
:100CD000A3EB4606914B13F8032C1C1F94F8A4B306
:100CE00001FB023394F8901300220D330391D0F8E6
:100CF000881091460B9300F180030A9204910193AE
:100D00001346D0F884100792069A0991F1B24A4529
:100D100007EB8606089140F3DD80DAF818300121F0
:100D2000DAF80420D3E93D0401FA02F27C4900EB31
:100D30004B03611800EB4101994240F216811D8876
:100D4000154200F02D815D88154200F02B819D88B1
:100D5000154200F02981DD8808331542ECD1A3EB60
:100D6000000E039853284FEA6E0E00F01581994249
:100D700040F2FE80A4EB0E04452C28BF452403EB73
:100D80004404A34280F0F48000259C460596A846C2
:100D9000294618881040884214D158881040814252
:100DA00040F0DF8098881040814240F0DC80D88895
:100DB00008331040814206D19C4207D91888104060
:100DC0008842EAD002339C4200F2B080B8F1110FA1
:100DD000059E40F2CD80C8F11503002BC0F2C880FB
:100DE000AEF10A0E5FFA8EFB07D09D40C8F11408E1
:100DF000012303FA08F848EA05054A4805F01F02EE
:100E0000C5F3C43300EB820200EB8303516DC5F3DD
:100E100044125B6DC5F3842500EB820241EA033383
:100E200000EB8505516D43EA01116B6D41EA032129
:100E30004FF6FF7381EA112282EA121202F00F02CA
:100E4000994298BF0F2A14BF0122002200F0AE8001
:100E5000039B532B00F0CF80049B01330493099B29
:100E60004FF6FF710133CDE9093297F858300898F1
:100E700083420CD0B2683B689B1A3B607B68326B44
:100E80009B1A7B600023B360336387F858003B688C
:100E900001333B60B3680133B3604FF6FF7399428F
:100EA00074D17B6801337B60336B01333363029B06
:100EB0000793019B09F101095C375C361433B9F1E2
:100EC000080F0AF1200A019305D0069A029B4A45B1
:100ED0003FF723AF13B10C4B83F8A4B3079B1BB1AF
:100EE0000B4B049AC3F888200A9B1BB1084B099A44
:100EF000C3F884200123064A012082F886310DB010
:100F0000BDE8F08F04000020B816002400ED00E0DA
:100F1000FC1000201F85EB51CDCCCCCCBC1600249E
:100F2000C7FFFF7F48D608083C040020A3EB0C0C49
:100F3000364833F8021C4FEA6C0C11400CF1010CDE
:100F400080FB0C60A0EBEC704FF0010C0128B8BFE7
:100F500001208540804401380CFA00F09C4605438E
:100F600017E704332FE706332DE7039D532D10D0E9
:100F7000039B0BF1FF3B532B5FFA8BFB99D1244A68
:100F8000B2F896330133A2F8963392E7029B0793A7
:100F90008FE7181A4FEA600E1D48A0F89AE3E6E6BC
:100FA0000233DCE60433DAE60633D8E6039B0909AC
:100FB000532B09D0049BB1F5606F03F10103049337
:100FC00010D0019B998150E7049BB1F5606F104AE6
:100FD00003F101030493B2F8943303F10103A2F87F
:100FE0009433EED10B9B13F809300D2BE9D18023FC
:100FF000019A937739E7049B054901330493B1F8CB
:1010000094330133A1F8943329E700BF5655555561
:10101000B816002410B504464BF0B6FC0146204635
:1010200089B2BDE81040FFF759B800BF00EB40009F
:1010300010B5084C04EBC00414ED0F7A54ED0E7A91
:10104000E7EE007AB0EE670A4BF09EFC54F8443CA1
:10105000186010BDFC100020F8B5264B1A785B789C
:101060009A4242D1244E7368002B23DD002506F1FD
:101070000800224C2F46D0F8AC30BFF34F8F03F15D
:10108000E002C4F8683220339342FAD1BFF34F8FA5
:10109000BFF36F8F337813B1037F012B20D04269E8
:1010A0000135716800F586701368A94243F00103A9
:1010B0001360E0DC0FF010FE114BD3F86844002CF5
:1010C0000DDD03F26C4303EBC4041968083333F8F5
:1010D000042CC8689C4242EA0002CA60F5D1F8BDFF
:1010E00080F8FC70FEF78CFFD9E744F0ADFD0028D6
:1010F000B8D1F8BDB81600240400002000ED00E0CF
:10110000FC1000204FF0B042F8B5D2F88030D2F891
:1011100088502B4003EA0005C2F888507DB1084F83
:101120000126B5FA85F4C4F11F0407EB840306FA1F
:1011300004F4D3F8A80303689847A543F1D1F8BD98
:10114000B81600240269C3682DE9F04712EA0309C2
:101150002AD005460E464FF000474FF00008B9FA76
:1011600089F327FA03F21B3BD24309EA02092A61F9
:10117000042B16D8DFE803F0352C231A0300B36ADA
:10118000002B37D003F1FF3AC6F828801FFA8AFAFD
:10119000746A34B123682046514698476468002C2D
:1011A000F8D1B9F1000FDAD1BDE8F0877068696B4A
:1011B000036889B29847B9F1000FD0D1F4E7B0685D
:1011C000A96B036889B29847B9F1000FC7D1EBE763
:1011D000F068E96B036889B29847B9F1000FBED196
:1011E000E2E73069296C036889B29847B9F1000FCA
:1011F000B5D1D9E7E96A1FFA81FAC9E738B590F89D
:1012000028300446012B04D0407F40B1002363778F
:1012100038BD426A11680B7BA3B9637F0BB901200B
:1012200038BD0F4D1046022305F1200205F14001A3
:101230000EF0E0FF95F8213003F0010383F0010088
:101240006377E5E7486A824218BF002814BF01208F
:10125000002003D10B6A002BDFD038BD002038BD41
:1012600040CD0024F8B5174E044690F8281006F13A
:101270002007437F012904D00BB1002363770120AD
:10128000F8BD606A01680D7B85B9002BF7D0022399
:101290003A460D490EF0AEFF96F8213003F00103F7
:1012A0006377002BEBD094F82810E3E74A6A90426A
:1012B00001D0002AE6D10A6A002AE3D1002BDED051
:1012C000E5E700BF40CD002480CD0024F0B511F04B
:1012D000010583B00AD190F828600446012E07D09A
:1012E000C368B3F1807F01D90123237703B0F0BD38
:1012F0000A4B476AD3F8E8030EF0F4FBE368B880C2
:10130000B3F1807FF2D9B7212A46384633468DF8AB
:10131000041001A926770EF06DFFE7E7B816002448
:1013200070B5012394B0224C05468DF80C300E4662
:10133000079304F120028DF820308DF834308DF8B9
:10134000483004F14003406A0593002306930B9351
:101350001393CDE90E33CDE910332B7F002B14BF4F
:1013600005230423CDE900420C930222114B029283
:101370000993A4F12003104A0A9304920EF0A6FBED
:101380002B7F9BB1A4F18002330E1E3C82F86130AA
:10139000320C6946330AA67022706370686A0EF0D8
:1013A0003FFE686A0EF092FB14B070BD1F3CEFE781
:1013B000C0CD0024390A04085D0A040810B594B0B1
:1013C00004465022064968464BF0A8FF6946606A09
:1013D0000EF026FE606A0EF079FB14B010BD00BF5F
:1013E0001CD708082DE9F8430446406A1F46884682
:1013F00091460EF06BFB237F002B3BD0A0690523A9
:10140000254D264EAB63030EE23606F8013CB07064
:10141000030C000A012F337070704FF00000D8F8F1
:1014200000306B64D9F80030EB642363E86527D0A3
:10143000022F1DD1D9F8042068651344D8F8041090
:1014400085F850002A660122A9652363144B85F8AC
:101450006420AB66134B617F03F11402606A0029BC
:1014600014BF194611460EF0DBFDE36A7BB1206B19
:10147000BDE8F883084D0423A0690B4EAB63C6E7B3
:10148000074B85F85070A86528666B65E2E7606ACF
:101490000EF01CFBEBE700BF0000002440CD002451
:1014A000450A04080800002421CE002400B583B0BA
:1014B0008161019201A9049A00930123C2626A46E4
:1014C000FFF790FF03B05DF804FB00BF2DE9F04388
:1014D000054695B0406A0E46344C914698460EF04B
:1014E000F5FA0223324A0027297F029304F590730C
:1014F000049204F58072009304F5A07305920193A1
:10150000012306978DF80C30002936D08DF8343041
:1015100004F581748DF84830330ECDF82C9004F822
:10152000013C05238DF82070CDF830801397079388
:10153000CDE90977CDE90E77CDE91077330CA670A8
:101540001C4F360A23706670D7F8E8030EF0CAFA0B
:101550006C6A6B7FA08033BB05A920460EF060FD4E
:10156000686A0EF0B3FAD7F8EC030EF0BBFA6B6AB8
:101570009880404615B0BDE8F0838DF8343004F211
:1015800001148DF848300423CDF82C908DF82010EC
:10159000CDF8308013910793CDE90911CDE90E11F3
:1015A000CDE91011CAE76946D7E700BF40CD002456
:1015B0005D0A0408B816002408B590F82830012BFD
:1015C00001D0012008BD406A46F0FAFEC04300F099
:1015D000010008BD38B50C4D044694F82830012BA5
:1015E00003D000230120236238BD606A46F0E8FE84
:1015F000C04310F00100F4D1D5F83833226A9B1AA9
:10160000002BEADB38BD00BFB816002438B51C4DEE
:10161000044690F82810FF22406A49F041FDD5F8B1
:10162000383303F5FA73236294F82830012B04D081
:101630000022012B22620FD038BD606A46F0C0FE46
:10164000C30719D5D5F83833226A9B1A002BEBDB78
:1016500094F82830012BEFD10022A021606A49F0D4
:10166000F9FC94F82830012BE6D1606A1822B021E9
:10167000BDE8384049F0EEBC94F82830D8E700BF08
:10168000B8160024CB0700D57047BFE72DE9F0431B
:10169000614D93B004460F46164694F82810012970
:1016A0002CD0002323620622606A49F0F9FC012352
:1016B000637795F8F033002B3FD1D7F80090D5F839
:1016C000F483376894F82830012B26D00022012BB0
:1016D00022626FD0D5F838330122023385F8F02327
:1016E000E26A2362D5F8F43330680344C5F8F43372
:1016F0000AB19047306813B0BDE8F083606A46F0E5
:101700005FFEC10740F18480D5F83833226A9B1A06
:10171000002BC2DB94F82810C5E7606A46F050FE43
:10172000C20772D5D5F83833226A9B1A002BC9DB61
:1017300094F82830012BCDD13CE0D5F8F433D7F81C
:1017400000808DF80A30C3F3022337688DF8093022
:1017500084238DF8083094F82830012B1AD0002209
:10176000012B2262B6D18DF82C3003A98DF84030C0
:101770000023606A04938DF818300793099311933E
:10178000CDF820800A97CDE90C33CDE90E3302ABBA
:1017900003932EE0606A46F013FEC30732D5D5F8F6
:1017A0003833226A9B1A002BD5DB94F82830012BA2
:1017B00090D1D8E78DF82C3003A98DF8403002ABDA
:1017C0008DF80A80C8F3022803930023606A04930B
:1017D0008DF81830079309931193CDF820900A974C
:1017E0008DF80980CDE90C33CDE90E3302238DF855
:1017F00008300323019005930EF012FC01980EF0BF
:1018000065F967E794F82830A9E794F828305DE790
:1018100094F8281045E700BFB816002433B910B576
:101820001C46C36A20469847204610BD2EE700BFDD
:1018300070B5194D04460E4694F82810012910D0B1
:10184000002323620622606A49F02AFC012294F8F0
:1018500028306277934212D0D5F838330F332362A1
:1018600070BD606A46F0ACFDC30712D5D5F83833B9
:10187000226A9B1A002BDFDB94F82810E2E7F20AB9
:10188000D821606A49F0C2FBD5F838330F332362A0
:1018900070BD94F82810D3E7B81600248388002B75
:1018A00058D02DE9F04700268EB004462B4D4FF05E
:1018B00006084FF00109374694F828A0BAF1010F45
:1018C00013D0BAF1010F606A27628DF80F801FD024
:1018D00084F81D90D5F838330136A2880F33B24210
:1018E0002362E9D80EB0BDE8F087606A46F068FD73
:1018F000C30730D5D5F83833226A9B1A002BDBDBBF
:1019000094F828A0606ABAF1010F8DF80F80DFD13A
:101910000DF10F0304A9019004938DF81CA08DF81C
:1019200030A00D97CDE9057ACDE90877CDE90A77A2
:101930000EF076FB01980EF0C9F894F8283084F880
:101940001DA0012BC6D17204D821606AD20A49F0C9
:101950005DFBBFE7704794F828A0B2E7B8160024F3
:1019600070B51E4D95F8F03323B1D5F8F433C3F3B9
:101970000A0303B170BDD5F8F8630446184BF60AA4
:10198000C3F8806094F82830012B0FD00022226227
:10199000012B19D0D5F838330021D5F8F4230233C0
:1019A00085F8F013C5F8F823236270BD606A46F02D
:1019B00007FDC3070ED5D5F83833226A9B1A002BD2
:1019C000E0DB94F82830E3E732461021606A49F002
:1019D0001DFBDFE794F82830D8E700BFB8160024D5
:1019E0000000002470B52B4DC26295F8F03323B18E
:1019F000D5F8F4338B4203D170BDC5E9FD1170BD3C
:101A0000044694F82810012929D0002323620622D5
:101A1000606A49F045FB0123D5F8F863637794F8D1
:101A20002830012B0BD00022012B226225D0D5F8C3
:101A300038330022023385F8F023236270BD606AD8
:101A400046F0BEFCC3071ED5D5F83833226A9B1A70
:101A5000002BE4DB94F82830012BE8D10DE0606A1C
:101A600046F0AEFCC20711D5D5F83833226A9B1A6E
:101A7000002BC6DB94F82810C9E7F20A1021606A2F
:101A800049F0C4FAD3E794F82830CCE794F828104A
:101A9000BBE700BFB816002410B582B0044601921F
:101AA000049A0093FFF79EFF6A4601A92046FFF7BC
:101AB000EDFD2046FFF754FF02B010BD70B5194D83
:101AC00095F8F03303B970BDD5F8F8630446164BAA
:101AD000F60AC3F8806094F82830012B0BD000225E
:101AE0002262012B15D0D5F838330022023385F855
:101AF000F023236270BD606A46F062FCC3070ED516
:101B0000D5F83833226A9B1A002BE4DB94F828308E
:101B1000E7E732461021606A49F078FAE3E794F883
:101B20002830DCE7B8160024000000242DE9F04737
:101B3000DFF884911F4692B00E46D9F880300446F3
:101B40009046B3EBD12F39D190F828C0594DC6F348
:101B50000A06C6F50069B94534BF1FFA89F91FFAAC
:101B600087F9BCF1010F4FD0D5F838330233236227
:101B7000BCF1010F05D000232362484612B0BDE836
:101B8000F087606A46F01CFCC3077AD5D5F8383375
:101B9000226A9B1A002B0DDA94F828C0E8E7606AE5
:101BA00046F00EFCC10759D5D5F83833226A9B1A86
:101BB000002B06DB002012B0BDE8F0874FEAD12AE7
:101BC0003C4D94F828C0BCF1010FE8D04FF0FF3332
:101BD000C9F88030D5F8383302332362BCF1010FE5
:101BE00004D00023C9F880A02362B0E7606A46F001
:101BF000E7FBC2075AD5D5F83833226A9B1A002B67
:101C0000D8DA94F828C0E9E70023606A8DF80A6002
:101C1000360A8DF80B3003A904938DF81830119310
:101C20008DF82CC08DF840C001908DF80960CDE989
:101C30000733CDE90C33CDE90E3303238DF808309B
:101C400002AB03930423CDE9098705930EF0E8F96D
:101C500001980DF03BFF94F828C085E7002394F825
:101C600028C02362BCF1010F4FF0FF33C9F8803068
:101C7000B0D152461321606A49F0C8F994F828C0DF
:101C8000A8E794F828300022012B22627FF475AF78
:101C9000606A46F095FBC0F30110431E022B3FF62D
:101CA0006CAF2046FFF7B2FC484667E794F828C0BF
:101CB00097E700BFB8160024000000242DE9F84380
:101CC000DDF820800F4616460021202204461D46DE
:101CD0004BF04CFBB8F1000F0CD0D8F80030B8F83E
:101CE0000A20E3811B0C2382D8F804306282E3824D
:101CF0001B0C2383384649F077FAF30619D4431EA8
:101D0000B8B107EB000C01E0013B12D31CF801ED68
:101D1000BEF12E0FF8D1C01A03F10109421EB944D9
:101D2000032AA8BF0322082BA8BF082390461A46FF
:101D300006E008280246B9464FF00008A8BF08226E
:101D40004FF0203339462046236063604BF0E6FABB
:101D500004F108031748424649462081A0721846FC
:101D60004BF0DCFA04F1FF3C0346E21D1CF8011FB6
:101D7000A1F1610E2039BEF1190F98BF8CF8001047
:101D80006245F3D1184604F10B0110F8013BA3F1B1
:101D90006102203B192A98BF00F8013C8842F4D127
:101DA000182365832D0CE6722373099BA582E361DA
:101DB000BDE8F883202020002DE9F04FDFF88C9457
:101DC00087B0D9F83803C9F83C03002B00F0DA805B
:101DD0001344154601F1200601F5FE77DFF870A4E3
:101DE00003931FE0002D63D0D9F86C23AA4200F0C2
:101DF000CD80D9F86823AA4200F00281D9E9DC211C
:101E0000AA424CD8A94200F2CF81691A184643F081
:101E1000B5F80135039B06F5007607F500779D427E
:101E200000F0B080D9F87843A6F12003AC42D9D8AD
:101E30002C1BD9F88883E208D8F8301004F0070486
:101E400002328A4203D3D8F838108A420DD941466B
:101E500010460593049243F061F88046DDE90423BF
:101E6000002800F0C181C9F8880398F804100029FF
:101E700040F03F81D8F828B0BBF1000F00F0AD81F1
:101E80001846D8F830304FF40071D21AD8F80C3018
:101E900004EBC20203EB42224346D847B9E7A9420A
:101EA000B3D918464FF4007200214BF05FFAB0E747
:101EB0004FF40072294618464BF058FA8022034628
:101EC000D94886F89E210C2286F8A221D9F86813F9
:101ED000D9F860238142C3F8C611C3F8CA2100F3C0
:101EE0006881D24B013AD24C83FB0103C81784FBB3
:101EF00001C40B44C0EB6313C0EB2430CD4C84FB16
:101F000003C4C3EB831C86F8A1018010A1EB0C0174
:101F10001C4420F03F000131014386F8A011D9177D
:101F2000C1EBE4110B4486F89F31BF4B9A4200F39A
:101F30004C81BE4BBE4883FB0213D11780FB02408D
:101F40001344C1EB6313C1EB2031BA4880FB03405B
:101F5000C3EB831486F8A5118910121B184421F0D5
:101F60003F0101320A4386F8A421DA17C2EBE010E0
:101F7000034486F8A331552386F8DE31AA2386F878
:101F8000DF3146E7002007B0BDE8F08F4FF0FF32A9
:101F90000024A6F11C00049383F8EC21214683F869
:101FA000ED2183F8EE2183F8EF2152221A705A7046
:101FB00061229A7083F8E7214122DA7083F8E621E2
:101FC000722283F8E42183F8E521D9F88023C3F84D
:101FD000E8214FF4F0724BF0C9F9049B5522C6F882
:101FE000D041C6F8D441C6F8D84183F8FE216FF03D
:101FF000550283F8FC4183F8FD4183F8FF2108E78F
:102000008D4C00214FF4007218464BF0AFF9034697
:102010004FF0000C022203CC46F8191CEB2146F8C5
:102020001D0C082006F8201C582106F81F1C9021C2
:1020300006F81E1CF8211A7383F80BC006F8130C5F
:102040009A7383F80FC006F8102C06F80B1C83F85F
:102050002C20D9F86813D9F8602383F819C0521AD4
:1020600083F81BC083F81DC01A6283F81EC083F872
:102070001FC083F82DC083F82EC083F82FC0D9E984
:10208000DC12521A80215A623F221A764FF0FF3238
:102090009A763E221A77012283F8302083F831C0E5
:1020A00086F820102921654B86F82210942186F8A5
:1020B000260086F823100E21614A86F824100D218F
:1020C00086F82510552186F8DE11AA2186F8DF1141
:1020D00003CBC6F82B101988C6F827009B78A6F802
:1020E0002F1086F8313003CAC6F83200C6F8361011
:1020F0008FE64FF40072184600214BF037F9D8F8FC
:1021000040200346002C76D1002A00F0A380D8F8A6
:10211000303011224B49CDE90044FFF7CFFDD8F80C
:1021200040301A6C002A00F0A1801B6BCDE90044FE
:102130001122454930464FF4E07BFFF7BFFD06F121
:102140002003D8F84480B8F1000F3FF462AE03F1E9
:1021500020049B44049523464446984610E05CF8CE
:102160001C1B0025236BCDE900C5FFF7A7FDABEBDA
:102170000803A46C08F12008002C18BF1F2B51D9AC
:102180002379A44604F11C0E1122A8F12000002B93
:10219000E5D162792569236B42F021022168CDE9FE
:1021A00000E5FFF78BFDE2E7A91A184642F0E6FECC
:1021B0002FE6FF23013A86F89F3186F8A13186F891
:1021C000A031194B9A427FF7B4AEFF2386F8A331B2
:1021D00086F8A53186F8A431CDE6594618464FF465
:1021E00000724BF0C3F814E6A6F1240343F804AFE1
:1021F0009F42FBD10DE6002AD8F844800CBF012293
:102200000222C2EB0414B8F1000F3FF402AE4246C2
:10221000013C926C002C01DD002AF9D190464FF46C
:10222000007B90E7049DF4E5FF03FB008320088218
:1022300097554541818080804C49090858490908D3
:10224000644909084449090848490908B81600249E
:10225000DEADBEEF23460822D9F864134FF4F07BBD
:10226000CDE90044FFF72AFD33466AE72346CDE96E
:1022700000445DE710B4294C94F88C346BB3D4F867
:102280009424904235D0012B27D0D4F87025824277
:1022900037D0022B21D0D4F84C26904233D0032BD8
:1022A0001BD0D4F8282790422FD0042B15D0D4F877
:1022B000042890422BD0052B0FD0D4F8E028904270
:1022C00027D0062B09D0D4F8BC29904223D0072B65
:1022D00003D0D4F8982A824211D0DC22591C02FB88
:1022E000034284F88C14C2F8940418465DF8044B39
:1022F00070470023DBB25DF8044B18467047072394
:10230000F8E70123F6E70223F4E70323F2E70423C7
:10231000F0E70523EEE70623ECE700BFFC10002002
:1023200000207047704700BF01483BF01DBF00BF51
:10233000CC1A0024084810B4D0F81434D0F848441B
:1023400099691A682CB1234600F214405DF8044BD9
:1023500018475DF8044B7047B816002401483BF05D
:1023600003BF00BF301B0024084810B4D0F87834F5
:10237000D0F8AC4499691A682CB1234600F58F60F7
:102380005DF8044B18475DF8044B7047B8160024FD
:1023900001483BF0E9BE00BF941B0024084810B47C
:1023A000D0F8DC34D0F8104599691A682CB123466E
:1023B00000F2DC405DF8044B18475DF8044B7047B1
:1023C000B816002401483BF0CFBE00BFF81B002424
:1023D000084810B4D0F84035D0F8744599691A68A7
:1023E0002CB1234600F5A8605DF8044B18475DF852
:1023F000044B7047B8160024114A037A0168D35C75
:1024000010B4CC58CA1824F00104CC501368DB0770
:10241000FCD4037D1F2B09D9203B20225DF8044BFF
:1024200002FA03F343F01803CB60704720225DF8F3
:10243000044B02FA03F343F018038B60704700BFAC
:10244000144A0908F8B507680646D7E90454A0619C
:102450002B7D1F2B49D9203B2022286802FA03F349
:1024600043F01803C360237D1F2B48D92022203B53
:1024700002FA03F3226843F01803D3606368002272
:1024800069680A601A601A6842F010021A60BA6934
:10249000297A47F029F9FA69217A206847F024F966
:1024A00033682E681A6A5B6891685868184A024057
:1024B00020680A4317495A602A7A8D5C725942F0A3
:1024C00001027251227A895C425842F00102425064
:1024D0009A6842F440429A601A6842F001021A6017
:1024E0001A6842F400721A60F8BD2022286802FAC5
:1024F00003F343F018038360237D1F2BB6D82022FB
:1025000002FA03F3226843F018039360B6E700BFB2
:102510000000FFFF144A090810B1036882889A611D
:10252000704700BF18B1838802681B04936170472D
:1025300008B51D200DF0E0FF08B183794BB11E20D6
:102540000DF0DAFF08B1837903B108BD5523C380CC
:1025500008BD5523C380F2E7D3B20F2B2AD84FF022
:10256000000C10B46346144C04E001332A2B1DD038
:1025700014F803CF6045F8D194F801C08C45F4D12C
:102580000E4C03EB43030E4902EB420C23445DF86F
:10259000044B01EB8C0201F1840093F8263100EB2F
:1025A0008C00C2F88C3082F88430704700205DF8CF
:1025B000044B7047002070476CD7080848D60808BD
:1025C0000000002410B40C4C002304F28C5C01E0E9
:1025D000152B0CD003EB430201331CF8021081428F
:1025E000F6D122445DF8044B92F98E0570474FF006
:1025F000FF305DF8044B7047B816002430B4002358
:10260000114C124D04E001331A2B1AD054F8085F14
:10261000A842F8D125798D42F5D10D4C02EB420547
:102620000C4904EBC30301EB850201F1840093F82C
:10263000A93100EB8500C2F88C3082F8843030BCC0
:102640007047002030BC7047ECD7080800000140FC
:1026500048D60808000000240138074B074A00EB61
:10266000C00003EB8000D0F8440190420CBFA020D2
:10267000A12043F04FBE00BF000000240000024034
:1026800001382DE9E84100EBC000134D1E46134B05
:1026900005EB800590460F46D5F8440198420CBFE3
:1026A000A020A12043F036FEB5F95A014FEA981157
:1026B000C5F85471C5F85C6143F0AAFDB5F95A310B
:1026C000002B07DB03F01F0001225B090449824055
:1026D00041F82320BDE8E88100000024000002400A
:1026E00000E100E0800AA0F58010522806D8044BD3
:1026F0001B5C0D2B02D8034AD05670470020704750
:1027000048D60808044A09080120FEF7FBBC00BFB0
:102710000220FEF7F7BC00BF0420FEF7F3BC00BFA9
:102720000820FEF7EFBC00BF1020FEF7EBBC00BF97
:102730004FF47870FEF7E6BC4FF47C40FEF7E2BC45
:1027400070B50C4686B00546164640B101680E4B82
:102750000E4A0B449B0A02EB4303B3F8740243F0A6
:10276000D9FD04F01303AA8801A90293C4F341130D
:102770002868C4F3810401920596CDE903343BF047
:10278000ADFB06B070BD00BF0000FEA748D608082C
:1027900000B1D5E7704700BF2DE9F843B14C04EB19
:1027A0000017D7F8CC35002B00F0BF800546060196
:1027B000B7F8D60543F0AEFDB7F8D635012103F0E2
:1027C0001F025B09023B01FA02F2082B0FD8DFE877
:1027D00013F008011001180120012801090030013F
:1027E00038014001A04BD96F21EA0202DA67A31930
:1027F000013593F8D005EDB20DF07EFE074610B11D
:102800001223C5718371A31993F8D1050DF074FEDD
:10281000814610B11323C5718371A31993F8D205B2
:102820000DF06AFE804610B11423C57183713444E3
:1028300048462E2194F8D425FFF7AAFF94F8D52511
:102840000E214046FFF7A4FF94F8D3252E213846E9
:10285000FFF79EFFD4F8CC3584491A688B4222F0EA
:1028600001021A6063D0824A934200F08F8002F521
:102870008062934279D17C4AD2F8901041F40041B1
:10288000C2F89010D2F8901021F40041C2F89010D4
:10289000DA6842F00042DA609A6822F4F0729A60D4
:1028A0001A68D60741D473499D68D1F89C23D1F8A2
:1028B000A44344EA0200D1F88C2310436E4A2A4014
:1028C0001043D1F898239860DD68D1F88803ED00B3
:1028D0007BD50243D1F89003DE68B4F5800F42EA5D
:1028E0000002D1F89403654D42EA0002D1F8A0033A
:1028F00005EA060542EA0002D1F8840300F4C02686
:1029000000F4006042EA060242EA0502DA601A6850
:1029100022F4006242EA00021A6002D1D1F8A82330
:102920001A641A6D22F001021A65BDE8F8834E4A56
:10293000D2F8981041F48051C2F89810D2F898104B
:1029400021F48051C2F898104D4A9342A0D1464AD2
:10295000D2F89C1041F02001C2F89C10D2F89C10D3
:1029600021F02001C2F89C1092E7464A93421BD105
:102970003D4AD2F8981041F40051C2F89810D2F8AC
:10298000981021F40051C2F8981081E7364AD2F825
:10299000901041F48041C2F89010D2F8901021F4C8
:1029A0008041C2F89010CFE7374A9342CCD12E4AEB
:1029B000D2F8981041F48011C2F89810D2F898100B
:1029C00021F48011C2F8981062E7B2F1806F80D1D3
:1029D000B0F5800F7FF47DAF1D6845F480551D6014
:1029E00077E7214BD3F8981021EA0202C3F8982028
:1029F000FDE61D4BD3F8901021EA0202C3F89020A7
:102A0000F5E6194BD3F8941021EA0202C3F894209A
:102A1000EDE6154BD3F8801021EA0202C3F88020BE
:102A2000E5E6114BD3F8841021EA0202C3F88420B2
:102A3000DDE60D4BD3F88C1021EA0202C3F88C209E
:102A4000D5E6094BD3F8881021EA0202C3F88820A2
:102A5000CDE6054BD3F89C1021EA0202C3F89C2076
:102A6000C5E600BFB81600240044025800300140FB
:102A70000038004000000024E0FFBF8FFFFF39D87E
:102A800000140058003401400050014008B10022F9
:102A900056E670472DE9F84F204F6423044603FBA8
:102AA0000073D3F8FC63002E00F0A981D3F804541E
:102AB0001DB1AB79002B40F0A281642303FB0473AA
:102AC000D3F80894B9F1000F04D099F80630002B20
:102AD00040F09581631CDBB215B11522EB71AA7130
:102AE000B9F1000F04D0162289F8073089F80620C2
:102AF000308B4FF0090843F00DFC2846FFF70CFD22
:102B000048461121FFF708FD2846FFF7BFFF1121B6
:102B10004846FFF7BBFF4FF0330A04E0B816002425
:102B20000A200FF0ABFE25B12B68AA881B691A4258
:102B300002D1BAF1010AF3D12846FFF7F3FC0520D0
:102B40000FF09CFE2846FFF7E7FC05200FF096FEED
:102B5000B8F10108DFD128464FF0640BFFF7E2FC23
:102B600005200FF08BFE4846FFF7DCFC0BFB04FB57
:102B700005200FF083FE284607EB0B0AFFF7CCFC7D
:102B800005200FF07BFE4846FFF7C6FC9AF80E348E
:102B90009AF80C242846002BA04D14BF3E211E217C
:102BA000FFF7F6FD9AF80E345D449AF80D24002BD9
:102BB0004846DFF8889214BF3E211E21FFF7E8FD4A
:102BC0004C22414628464AF0D1FBDAF8FC33944ABD
:102BD0005B689342CAF81434DFF864A240F01181B4
:102BE0003BF058FEDAF82030C3F302139FED8D7AE4
:102BF0009FED8D5AB0EE084A9944F7EE003A99F8E5
:102C0000A8324FF0000903F01F03D840642307EEF9
:102C1000900A03FB0473F8EE677AB3F810B4C7EEBA
:102C2000275A07EE90BA9FED817AF8EEE77AC7EE61
:102C3000274ADFED7F7AB0EE007AE5EE877AA5EEDF
:102C4000875A25EE844A37EE856A74EEE72ABBF58B
:102C5000C87F40F2145309F1010ED7BF1946322341
:102C600064234FF49670C8BF782007EE90EAD4BF73
:102C70004FF4167C4FF4827C0344B8EEE77AC8BF69
:102C80004FF4FA7107EE903A27EE257A01EB0C0328
:102C9000F8EEE76A86EE873A73EE636AFCEEE67A50
:102CA00017EE902A07EE90CAB8EEE73A07EE903A90
:102CB000F8EEE77A23EE243AC3EE276A36EEC53AF9
:102CC00072EEE66AC3EE077A77EEE37AFCEEE77A15
:102CD00017EE901AC6EE877A77EEE37AFCEEE77A83
:102CE00017EE903A03F1020C0CEB010AF0EE466A83
:102CF00007EE90AAF8EE677AE7EE276AF4EEE64A66
:102D0000F1EE10FA00F382805FFA82FCBCF10F0F43
:102D10007ED8323807EE900AF8EEE77A77EEC47A7A
:102D2000C7EE876AFCEEE67A17EE90CA5FFA8CF07F
:102D30000F286DD888B2FF286AD898B2FF2867D8C4
:102D400040EA097310054FEA0C4200F07F6002F47C
:102D50007F0203431343374A02EA012143EA010891
:102D60006420012300FB047400272846C4F82034A3
:102D7000C4F81884C4F81C74C4F82474C4F8287403
:102D8000C4F83074C4F8347447F034FB94F8553404
:102D9000202BD9B21AD194F85434012B16D0242305
:102DA00084F85534D4F814341A6822F001021A60F9
:102DB0001A6822F480521A601A681A601A6842F07F
:102DC00001021A6084F8551484F854740021F07ECE
:102DD00043F01EFAF37E0124174D5A0903F01F0336
:102DE000002104FA03F345F82230B07E43F010FAD4
:102DF000B37E5A0903F01F039C4045F82240BDE80A
:102E0000F88F3BF047FDDAF81C30EDE601316BE757
:102E1000BEF10F0FA4D0F14619E700BFCC1A002471
:102E2000001C0058286B6E4E0000164300247449A5
:102E30000000704200FFFF0000E100E048D60808F3
:102E4000004402580D4B70B5DE6F002E14DD0C4CA3
:102E5000002503E0B54204F120040DD0237F0135A5
:102E6000002BF7D0E06800220028F3D0217D203429
:102E7000FFF766FCB542F1D1012070BDFC100020C7
:102E80003C040020F8B590F8EE311C09013C062CFA
:102E90000FD8184E054603F00F0306EB4402B2F8B4
:102EA000B80240FA03F2D20703D595F8F971012F61
:102EB00001D00120F8BD07FA03F33444013B184068
:102EC00048F058FE94F8C82213180B4A02EBC301CD
:102ED00052F833208B8810691840EBD00023084645
:102EE00095F8EF21022185F8F931FFF729FC3846E2
:102EF000F8BD00BF48D60808E41C0024014B53F875
:102F00002000704750400058014B43F82010704794
:102F10005040005819481A4B01681A4A41F4807110
:102F200030B4016082B0D3F8F410FF24CA2041F419
:102F30008031C3F8F410D3F8F41001F4803101911A
:102F40005321019D546250625162D3F8D030DB01AD
:102F50000CD40D4B00210D4A43F8041B9342FBD1C6
:102F6000084B0B4A1A6502B030BC7047126D084B13
:102F70009A42EED102B030BC704700BF0048025800
:102F80000044025800400058544000586C4000581B
:102F900031666542F0B50446D0F85C01454B83B01C
:102FA000A16804F5967204F1E0070E68C1B220F042
:102FB000FF0001921039A3FB0131090946F0E4FB3F
:102FC000D4F81C110023019A012984F8203118D06B
:102FD000042916D0102958D0402912D0B1F5807F8D
:102FE00056D0B1F5806F53D0B1F5805F58D0B1F5B0
:102FF000803F4FF03C030CBF6FF0080C6FF4006C87
:1030000001E06FF0080C06F118053046E95801EAB6
:103010000C01E950D4F81C1146F068F9D4F81C31C1
:10302000012B16D0042B14D0102B0FD0402B10D016
:10303000B3F5807F30D0B3F5806F2DD0B3F5805FCE
:1030400032D0B3F5803F06F1540502D04FF4006151
:1030500000E008212B683A46D4F85C010B4340217C
:103060002B60C4F8E810C1B2124B20F0FF001039F9
:10307000A3FB0131090946F037FBD4F85C21136842
:1030800043F01003136003B0F0BD6FF4006CBAE7B7
:103090006FF0080C0423B6E706F11C050821D9E7F8
:1030A0006FF4006C0423AEE706F11C054FF40061D9
:1030B000D0E700BFABAAAAAA2DE9F04FDFF848B1CC
:1030C00085B09BF8004024B90124204605B0BDE836
:1030D000F08F474BD3F838530DF0FEFD454A92F878
:1030E000B83B002B00F0BC81434B02F5C4770BF5D5
:1030F000A7640026A3FB0513404D5B09A5FB031540
:10310000ED0805EB8505A3EB4505D2F87C3BC31A1A
:103110000193EBB207EB8505029302F18003009364
:10312000019A002A04DBD4F82431934200F37C8115
:103130004FF4B47303FB06B393F85836002B00F03A
:10314000C080D4F85C11A3682D481A68CBB221F076
:10315000FF01103BA0FB03032A481B09C35C194471
:103160004B68A1891FFA83FED368CEF1160E23EABD
:103170000103BEF1070FD36040F2A3801D4A012175
:10318000D2F888308A460133C2F888300022D4F859
:10319000643190469C4603935CF8049B48461DE0CE
:1031A000DCF80090B8F1140FA9EB000348462DDCC1
:1031B00013F1080948BF03F117094FEA291308EB77
:1031C000291803F1FF39013102FA03F30CF1040C61
:1031D0000AFA09F28E4542EA030217D38E45DFD878
:1031E000C8F11503DCF800004FF01508E9E700BF4F
:1031F000B8160024FC1000201F85EB51CDCCCCCCA0
:10320000ABAAAAAA144A090804000020B8F1150FB5
:1032100040F000819649C2F38423C2F3441001EBCD
:10322000830301EB8000D3F8D032D0F8D0021B0228
:1032300043EA001302F01F00C2F3C43201EB800026
:1032400001EB8202D0F8D012D2F8D0220B4343EA2D
:10325000023383EA132282EA121202F00F020F2ACB
:1032600040F0D880C3F30F134FF6FF72934200F083
:10327000D180B3F5606F00F0DC80009A938197F8FD
:103280005820029882420CD0A9683A68521A3A60D3
:103290007A68296B521A7A600022AA602A6387F83A
:1032A00058003A6801323A60AA680132AA604FF6C3
:1032B000FF72934205D17B6801337B602B6B013336
:1032C0002B63009B204601365C3714335C3504F5D4
:1032D000B4740093FFF75EFE664B93F8B83BB342BD
:1032E0003FF71EAF63480121002280F88611C0F825
:1032F0007C2B002B3FF4E8AE9BF81026DBF854063D
:1033000012F0020FDBF8402511680A6A0CBF024375
:1033100042EA8002012B0A623FF4D6AE9BF878277E
:10332000DBF8BC0712F0020FDBF8A82611680A6A66
:103330000CBF024342EA8002022B0A623FF4C4AE91
:103340009BF8E028DBF8240912F0020FDBF81028C4
:1033500011680A6A0CBF024342EA8002032B0A6228
:103360003FF4B2AE9BF8482ADBF88C0A12F0020F49
:10337000DBF8782911680A6A0CBF024342EA80022E
:10338000042B0A623FF4A0AE9BF8B02BDBF8F40BE1
:1033900012F0020FDBF8E02A11680A6A0CBF024340
:1033A00042EA8002052B0A623FF48EAE9BF8182D8C
:1033B000DBF85C0D12F0020FDBF8482C11680A6A8A
:1033C0000CBF024342EA8002062B0A623FF47CAE45
:1033D0009BF8802EDBF8C40E12F0020FDBF8B02D44
:1033E00011680A6A0CBF024342EA8002082B0A6293
:1033F0007FF46AAE9BF8E83FDBF8182F13F0020F5A
:103400001D4B1268D96A136A14BF43EA81030B4348
:10341000136259E6174AD2F884300133C2F8843077
:10342000B6B14FF6FF732AE70024204605B0BDE889
:10343000F08F12494A7802EB420201EBC202324499
:10344000527C0D2A7FF419AF802200998A7716E703
:10345000039958220A4849F061FF4FF6FF730EE7BF
:1034600004490122C1F87C3B81F886212DE600BF8A
:1034700048D60808FC10002004100020B8160024CC
:1034800028120020D0F850112422F8B5C0F8D0211D
:1034900004460A680023806804F5A87522F001023A
:1034A0000A600B604B608B6094F805C0C4F8D8319B
:1034B00084F8CC31C4F8D031C4F86831C4F8D431C0
:1034C000C4F87031C4F864314FEA8C23B44A03F471
:1034D0008053C4F854019142C4F858314FEA0C3378
:1034E00003F40053C4F85C314FEA0C2303F4806307
:1034F000C4F8603100F0AE81237913F0010002D0EE
:103500000422C4F8642113F0020305D0D4F8642126
:1035100042F00802C4F864211CF0010F0DD048B13C
:10352000D4F8782142F00202C4F878214FF48032B6
:10353000C4F88021002B40F081819A4B03F12C00CC
:1035400053F8042B944200F03F819842F8D11CF0CC
:10355000080F40F04F81D4F8D031002B00F09C814F
:1035600024232846C4F8D0310B6823F001030B60F4
:103570003BF02EFD012815D0D4F87831002B40F017
:103580009181D4F8503128465A6822F490425A600A
:103590009A6822F02A029A601A6842F001021A60C0
:1035A00046F0F0F92379DA076DD5D4F82C21002AFA
:1035B00000F05F810023D4F8341104F13C06E2638B
:1035C0004FF48062C4F8B8103046E264C4E91133A5
:1035D000C4E91433C4E91833C4E91A334FF480330F
:1035E000E3654FF48073A36546F052FF304639F02F
:1035F0007DFFD4F8D431C4F8C861202B65673DD174
:10360000E368626999B2CAB3B1FA81F04009A9B31B
:1036100094F8CCC1BCF1010F30D02227C4F8D801F6
:1036200094F870C0C4F8D4715F4FA4F8AC110121B4
:10363000A7675E4F8C45C4F8A821E7675C4FC4F8C4
:103640008C0084F8CC11C4F888700ED094F8717096
:1036500084F87010012FD4F8501100F02B814FF432
:10366000006384F87000C4F89030102100222023F9
:10367000C4F8D81184F8CC21C4F8D031E26B237996
:103680005268C4F844219B0740F18880D4F8302167
:10369000002A00F0E3800023D4F8381104F1B406C6
:1036A000C4F8B420C4F8C0304022C4F8D03030464A
:1036B000C4E93233C4E93633C4E938334FF48033D4
:1036C000C4F8D4304FF48063C4E92E12C4F8C43077
:1036D00046F0DEFE304639F009FF002840F0B980A0
:1036E000D4F8B420334B34483449824218BF9A424C
:1036F000C4F8C461C4F8EC5000F160000CBF0123B1
:1037000000232F4C8A4208BF43F001033031A2420C
:1037100008BF43F0010360348A4208BF43F001034D
:103720003031824208BF43F0010300F568708A42DD
:1037300008BF43F0010301F55C71A24208BF43F0EA
:10374000010304F568748A4208BF43F00103303175
:10375000824208BF43F0010360308A4208BF43F051
:1037600001033031A24208BF43F001038A4208BF7F
:1037700043F001033031824208BF43F001038A4223
:1037800008BF43F001033BB90E4BD31AB3FA83F3DE
:103790005B09002B00F0A78000235360F8BD00BF39
:1037A000000C0058BC1C002081B20708B5B2070805
:1037B000B9B2070810000240280002404000024051
:1037C00058000240B8040240002C3FF4C0AE94F808
:1037D000F831002B3FF4BBAED4F878311CF0080F61
:1037E00043F00803C4F878314FF40043C4F888313B
:1037F0003FF4B1AED4F8D031002B50D0242328466A
:10380000C4F8D0310B6823F001030B603BF0E0FB00
:1038100001283FF4C7AED4F87831002B46D1D4F854
:10382000503128465A6822F490425A609A6822F031
:1038300022029A609A6842F00802ACE6D4F8783125
:1038400043F00103C4F878314FF40033C4F87C31FD
:1038500073E6FEE70423C4F874314DE6D4F8DC3196
:103860001A6842F080021A601A6842F040021A6038
:10387000F8BDD4F8DC21116841F4807111609168C1
:1038800041F001019160116841F02001116011685F
:1038900041F010011160F6E684F8CC3160E684F85E
:1038A000CC31ABE728463BF06DFE6AE628463BF09C
:1038B00069FEB4E79BB2243130463AF031F8002873
:1038C0007FF4D3AED4F8503184F8CC011A6842F4B6
:1038D00080721A609A6842F001029A609A6842F017
:1038E00040029A60CAE65360F8BD00BFF8B50446CE
:1038F000EFF31185502383F31288D0F830311B6821
:1039000003F001031BB1EDB285F31188F8BDD0F8C7
:10391000D021D0F8D4110A4302F02102212AF2D09A
:10392000D0E909218A424FD04BD800691A46431A80
:103930009BB2A262002284F8E021D4F8D021202A90
:10394000E1D1A2695118DED0B3FA83F25209002BFB
:10395000D9D094F8CC010128D5D02120A4F8A631E3
:103960004FF0010CC4F8D821C4F8D001D4F8C40138
:10397000C4F8A011A4F8A43184F8CCC170B31D4ED2
:1039800090F834E0C6631C4EE645026506641B4EA3
:10399000C6640CD090F83560D4F85071664580F854
:1039A00034C015D04FF4006380F8342043651021F3
:1039B00000222023C4F8D81184F8CC21C4F8D031D7
:1039C000A1E7531A9BB2B4E7012380F8E0319AE7EC
:1039D00007F1280239F0A4FF0028E8D1D4F85031CB
:1039E00000224021196284F8CC219A6842F08002BA
:1039F0009A6088E759B207087DB20708B9B207088C
:103A00002DE9F843414C04EB8004D4F8C04B002C62
:103A100036D0D4F8E8511F463D4B0646A1602046FB
:103A2000236090466B68C4F8DC31AB6B63616B6BF1
:103A3000A361EB8FE360AB8F2361364BC4F8E431B5
:103A40000CF008FF6B68A88DC4F85031002854D1E1
:103A500094F8EE010CF050FD02213A0794F8EC9135
:103A600084F8F9110FD5F8B10B2201363A21C6714D
:103A7000827194F8EF21FEF763FED4F82C3143B342
:103A80002046BDE8F88318F0020F0DD060B10B227C
:103A90008271721CC27117F0010231D10123202101
:103AA00084F8F931FEF74CFE48460CF025FD00285D
:103AB000E3D018F0010FE0D00C2201360221C671CC
:103AC000827194F8ED21FEF73BFED4F82C31002BE7
:103AD000D6D195F8321095F83000890942F098FB5C
:103AE00095F8303001220C4903F01F005B09824039
:103AF000204641F82320BDE8F88342F00BFCA7E7FD
:103B000094F8EF21FEF71CFECEE700BFFC1000206A
:103B100098D90808852E040800E100E0BFF34F8F14
:103B20000549064BCA6802F4E0621343CB60BFF359
:103B30004F8F00BFFDE700BF00ED00E00400FA0575
:103B400019484FF6FF0C194A84B0C168184B01EAB6
:103B50000C010A43C260D3F8D020D3F8DC2042F035
:103B60000052C3F8DC20D3F8DC2002F000520192AE
:103B7000019AD3F8DC2042F08042C3F8DC20D3F86D
:103B8000DC2002F080420292029AD3F8DC2042F05C
:103B90000042C3F8DC20D3F8DC3003F00043039389
:103BA000039B04B00DF04CB800ED00E00005FA05F1
:103BB0000044025808B51D480023C0F88430BFF304
:103BC0004F8F436923F480334361BFF34F8FD0F8A5
:103BD000803043F6E074C3F34E3CC3F3C90E4FEAA2
:103BE0004C1C0CEA0401734641EA8372013BC0F8A5
:103BF00074225A1CF8D1ACF1200C1CF1200FF0D12A
:103C0000BFF34F8FBFF36F8FBFF34F8FBFF36F8F34
:103C10004369002223F400334361C0F85022BFF30C
:103C20004F8FBFF36F8F72B6FFF778FF00ED00E0A4
:103C300003689B0AA3F58013522B57D870B53E4CEE
:103C400014F803C0BCF10D0F4FD840798508002946
:103C500051D04FEA900E4C2438480CEB8C0304FBF7
:103C60000C040CEB4303D4F8AC6902242B4404FA93
:103C70000EFEF46800EB83054EEA0404A966AA6709
:103C8000F460EFF31184502383F312882C2303FB99
:103C90000CF3C1184A6E52B3131DC1F88820284A8C
:103CA0002C21284D01FB0CF105EB010E14310A44C7
:103CB00052F8041B19B1196052F8043C04339645BC
:103CC000F6D10022E4B21A6084F311882C2303FB9E
:103CD0000C03D3F888302BB34C2303FB0C00D0F833
:103CE000AC29D36843F00103D36070BD7047144A18
:103CF00024331344D4E711484C23022403FB0C0360
:103D000004FA05FED3F8AC690CEB8C03F4680CEBF9
:103D1000430324EA0E042B44F46000EB8304A16601
:103D2000A267AEE74C2303FB0C00D0F8AC29D368A4
:103D300023F00103D36070BD48D60808B8160024EC
:103D40001C1700244017002403689B0AA3F5801366
:103D5000522B00D97047144AD35C0D2BFAD84FF080
:103D60004C0C10B4114C79B9417902220CFB034080
:103D70005DF8044B21FA02F3D0F8AC199A40CB68F5
:103D800023EA0203CB607047417902220CFB034017
:103D90005DF8044B21FA02F3D0F8AC1902FA03F3F0
:103DA000CA681343CB60704748D60808B816002489
:103DB00003689B0AA3F58013522B10D8084AD25CE3
:103DC0000D2A0CD84079022306494FF04C0CD840FC
:103DD0000CFB02128340D2F8AC29DB43136170471D
:103DE00048D60808B816002401490248FDF7AAB9C8
:103DF0001C1700240000014001490248FDF7A2B948
:103E00001C1700240000014002494FF08040FDF7DC
:103E100099B900BF4817002401490248FDF792B93B
:103E2000741700240004004001490248FDF78AB9D4
:103E3000A01700240008004001490248FDF782B99C
:103E4000CC170024000C00402DE9F843194E3569C9
:103E5000F3681D4010D04FF00047DFF85C80B5FAE2
:103E600085F227FA02F31F2A6FEA030305EA030526
:103E7000336103D0002DF2D1BDE8F883D8F8683162
:103E8000A3B103F1FF3900231FFA89F9C8F868319B
:103E9000D8F86441002CEDD0236820464946984765
:103EA0006468002CF8D1002DD9D1E5E7F16A1FFA3A
:103EB00081F9EDE700100040B816002401490248DE
:103EC000FDF740B9501800240004014010B5064C1D
:103ED000064804F5CC71FDF735F904F5F87104488E
:103EE000BDE81040FDF72EB9B816002400040140CB
:103EF000001C004001490248FDF724B97C18002449
:103F00000018004001490248FDF71CB9D4180024EC
:103F10000020004001490248FDF714B900190024AF
:103F20000040014001490248FDF70CB92C1900245A
:103F30000044014001490248FDF704B95819002422
:103F4000004801402DE9F0474FF425728EB0002162
:103F50008A4849F00BFA8A4B8A4F4FF08041D3F8D8
:103F6000F02007F12004B94642F0010207F5306560
:103F7000A246DFF81882C3F8F02007F52E66D3F8C2
:103F8000F02002F001020092009AD3F8E82042F0FB
:103F90000102C3F8E820D3F8E82002F00102019200
:103FA000019AD3F8E82042F00202C3F8E820D3F8DF
:103FB000E82002F002020292029AD3F8E82042F0CE
:103FC0000402C3F8E820D3F8E82002F004020392C8
:103FD000039AD3F8E82042F00802C3F8E820D3F8A7
:103FE000E82002F008020492049AD3F8E82042F094
:103FF0001002C3F8E820D3F8E82002F0100205927E
:10400000059AD3F8E82042F02002C3F8E820D3F85C
:10401000E82002F020020692069AD3F8F02042F03F
:104020000202C3F8F020D3F8F02002F00202079257
:10403000079AD3F8E82042F04002C3F8E820D3F80A
:10404000E82002F040020892089AD3F8E82042F0F3
:104050008002C3F8E820D3F8E82002F08002099239
:10406000099AD3F8E82042F48072C3F8E820D3F824
:10407000E82002F480720A920A9AD3F8F02042F4FF
:104080008032C3F8F020D3F8F02002F480320B9293
:104090000B9AD3F8F02042F40032C3F8F020D3F8A2
:1040A000F02002F400320C920C9AD3F8F02042F483
:1040B0008022C3F8F020D3F8F03003F480230D936E
:1040C0000D9B4246002301E056F833208A420CD073
:1040D0000133112BF8D10AF1200A002042F01AF91D
:1040E00055450DD05AF8201CEBE7274A0AF1200A63
:1040F00002EBC303B3F8640E42F00CF95545F1D15D
:1041000007F52E6709F120094F4512D099F80630BE
:10411000002BF7D099F804000CF0EEF902210028EA
:10412000F0D099F8082009F12009FEF709FB4F4566
:10413000ECD14FF08041154F154E3A46002301E077
:1041400056F833208A420BD00133112BF8D120349A
:10415000002042F0DFF8AC420CD054F8201CECE711
:10416000094A203402EBC303B3F8640E42F0D2F8DC
:10417000AC42F2D10EB0BDE8F08700BF1C1700249E
:1041800000440258C8D9080848D608080000014071
:10419000A8E408081F4B984210B50ED003F58063C1
:1041A00098420AD01C4A03F58043984218BF9042B7
:1041B00003D003F5806398421BD13AF06BFB174B99
:1041C0001749DC69DA69C4F3022CC2F3022201EB5D
:1041D0000C0393F8A83203F01F03D8400F4B11498A
:1041E0001B69C3F3C03342EAC303CB5C03FB00F09B
:1041F00010BD3AF04FFB094B0949DC69DA69C4F399
:104200000214C2F302120B1993F8A83203F01F0331
:10421000D840E3E70000014000400140004402585C
:1042200048D60808F04909082DE9F04FB24B91B083
:104230000024DFF8EC820193B04BA3F6E86BB04E9C
:104240000025DFF8B892B30AA3F58013522B57D894
:104250001BF803300D2B53D818F90370A94B93F8B2
:10426000323E012B40F00D81012F3FD14FF0000A6B
:10427000514638460EF012FF0EF098FF90F800C03D
:10428000BCF1000F18BFBCF1540F14BF4FF0010C6C
:104290004FF0000C40F0F1800AF1040A1FFA8AFA8C
:1042A000BAF1100FE4D1002C00F0B480924A002142
:1042B0000DE01BF803300D2B10D818F90330BB426A
:1042C0000FD0013102F58672A14280F29F80906882
:1042D00003689B0AA3F58013522BEAD90023BB4243
:1042E000EFD1437999F805009842EAD10135082DBC
:1042F00014D059F8206FB30AA3F58013522BA7D915
:10430000804B93F8323E012BF0D001220027022B84
:10431000ACD1002AAAD00135082DEAD1019B013485
:1043200003F58673042C019389D1774F0026DFF8BB
:10433000F4B1764BDB6FB34265DDD7F80C80B8F192
:10434000000F60D0724BB8F804105D68D8F8000018
:104350003B7C002DDFF8D0C10193B1FA81F3844496
:10436000C3F11F0902934FEA9C2C40F3A780624AD5
:10437000002405E0013402F58672AC4200F09B8017
:1043800013686345F6D14FF486735B4A03FB04243C
:10439000019B0322C7F8049001363B744FEA49039E
:1043A000C7F80C8002FA03FCBC6188F806200122E1
:1043B00088F8076002FA03F5A36C43EA0C03A364D0
:1043C000236D2B432365524B1B78002B5ED0636D0E
:1043D00002FA09F943EA0903636581611FFA89F169
:1043E000D4F8AC00FBF738FE20462037FBF708FE78
:1043F0000123082E0BF1180B07F8043C07F8033CC7
:104400000BF8073C95D111B0BDE8F08FBCF1000F5F
:104410007FF46CAFD9F80C0000223E4B04E001326F
:104420000C33102A00F0298359688842F7D152B220
:10443000304699F80510FEF7E1F8374A4068002346
:1044400051680133884215D0102B02F12402F7D1B4
:104450004FF0FF3303EBC303304A02EB830393F8BF
:104460006031002B7FF442AF244B03EB4515019BD9
:104470009D6053E7DBB2013BECE7002C7FF416AF05
:1044800034E7B7F1080218BF012240E7029D4FEA66
:10449000014C02FA09F1C5F12F0589B202FA05F5BE
:1044A0001A46636D2B436365C0F818C0D4F8AC009E
:1044B000FBF7D2FD98E7032C00F3EA804FF48673F4
:1044C000134A03FB05231869002800F0C282542216
:1044D000C3F808C00CF1010C0E4C83F8102183F8CE
:1044E00011C16B1C0A4A53600022064B93F8473EE9
:1044F0000393C3681FE000BF0C00002030E50808EC
:1045000000040140B81600243C040020FC100020E8
:104510000400002084000024440100240000002442
:10452000044A0908B81000200000FEA701320C342C
:10453000102A00F0A28261688B42F7D1417952B211
:104540000068FEF75BF84FF48672B14BDFF804A306
:1045500002FB0532D0E90141C2E907410022514680
:104560004B6801329C4217D0102A01F12401F7D187
:10457000A84BA94693F83C21002A00F05C82A6488B
:10458000A649A74AA74BC0F8101CC0F8082CC0F8D1
:10459000183C11B0BDE8F08FD2B24FF48671013AE9
:1045A00001FB05F39B4902EBC202049301EB82027B
:1045B0009749194492F86031B1F810010593002B26
:1045C000DDD1049CA2F86001974BA210086903FB9F
:1045D00002F2964B0068C2EBC20C02EBC20203EB84
:1045E0004C1C03F5607303EB4212D8F80030C1F89D
:1045F000B4C0C1F8FC203322CB60C1F8B8208C22B3
:10460000C1F80021FFF7C6FD894B1C19039B062B3F
:1046100000F00E82072B874B874908BF1946874B4E
:10462000874A18BF1A464FF48673B0FBF2F2B0FB0C
:10463000F1F1013A7648013903FB050392B2A3F880
:10464000BC10A3F87420226600220393A4F858201B
:104650006266E265049A02F1580100F10802114411
:104660001A69106844F0BEFF039B1A691068039230
:10467000036843F08003036053790C2B0DD8DFE807
:1046800003F06F0C0C0C670C0C0C5E0C0C0C550042
:1046900003236C4A82F8463E71E74FF486735C4A06
:1046A00003FB052359694FF0600C02680023CDF825
:1046B00020C04FF4807C0A9322F00102CDF838C06C
:1046C0004FF0010C0D930F930223CDF824C04FF04F
:1046D0000A0CCDE90BC3026008AA44F007FE4C4B5C
:1046E0004FF4867202FB0532039B5269196800235E
:1046F000012A3DD0042A3BD0102A00F0AF81402A85
:1047000036D0B2F5807F00F0AC81B2F5806F00F05A
:10471000A881B2F5805F00F0A981B2F5803F4FF02B
:104720003C030CBF08224FF4006222E04FF4867372
:10473000374A4FF4805103FB05235961B3E74FF427
:104740008673334A4FF4807103FB05235961AAE74E
:104750004FF486732E4A102103FB05235961A2E70B
:104760004FF486732A4A012103FB052359619AE716
:10477000082201F1180050F803C042EA0C02C250AE
:10478000039B1879002840F03E81214B4FF486723C
:1047900002FB053200231069D1690068026842F00B
:1047A00001020260DAF804200133914200F027810F
:1047B000102B0AF1240AF5D14FF0FF33154A03EB11
:1047C000C30302EB8303D3F844011F4B98420CBF91
:1047D000A020A12041F09EFD0D4A4FF4867303FBFB
:1047E00005231A6951790C2900F20681174B03EB56
:1047F0004103B3F8E8CFD2F800E04FF48673044ADF
:104800001349704603FB0523A3F818C000232AE0D0
:104810000400002000000024FC10002069E40408CB
:1048200065E4040871E404086B4CA407400F0124FC
:104830000C0000201055220044950800D0DD060031
:1048400040771B00B81600240000024048D6080834
:104850006815002044010024904200F005810133D6
:10486000042B00F0078151F83320002AF4D1844A48
:1048700086461046D2F868240132C0F8682400EB5E
:10488000C302DB00C2F86CE4194405982346902269
:10489000B1F804E0DFF804A24CEA0E0CA1F804C061
:1048A0007849FDF7EDFE4FF48673774A4FF4403EAA
:1048B00040214FF4805C03FB05250023E869026872
:1048C00042F010020260026842F014020260C4E981
:1048D0001F33C4E92733C4E929334FF480632A6ABC
:1048E000C4F898E0C4F88430A167C4F89420D5F8DF
:1048F000B820C4F89020C2B220F0FF00103AAAFB02
:104900000231EA68049B1832C4F888C04FF4804C26
:104910000909226703F170025C4B1A44D5F8B430E0
:10492000C4F88CC0636744F0DFFEE869049B4FF471
:104930000031D0F800E04FF4006C03F1B802534BA3
:10494000C4F820E0D0F814E01A440023C4F824E0AE
:10495000D0F804E0C4F828E0D0F808E0C4F82CE06F
:10496000D0F80CE0C4F8C830C4F830E0C4E9303303
:10497000C4E93933C4E93B332B6AC4F8E01003932C
:104980004FF48063C4F8CC30039BC4F8DC30D5F816
:104990000031C4F8D830C3B220F0FF00103BAAFBAE
:1049A0000331EB68C4F8D0C010330909C4F8B8303B
:1049B000D5F8FC3003934FF48043C4F8D430039B04
:1049C000C4F8BC3044F090FEEB69B8F804101A68E3
:1049D000D8F8000062635A69A2635A68E2639A6871
:1049E0002264DA6862641A6842F010021A601A6877
:1049F00042F014021A60CBE44FF0000CFBE6DBB28D
:104A00000593013BDAE607910BF076FD07990690D6
:104A100048B1039B02211A7AFDF792FE069B5422AD
:104A2000DA80039B19684B6C43F400434B64ACE69B
:104A30001749184AF7E5144A4FF4867808FB092805
:104A400098F8111198F8102183F83D1183F83C2152
:104A500095E50223104A82F8463E90E54FF4006245
:104A600087E60822042384E6DB000DE74FF40062AA
:104A700004237EE600239B88FFDE00235B68FFDEC5
:104A8000FC10002001000000040000200C000020A9
:104A9000882A1100A0BB0D00B8160024ABAAAAAA50
:104AA000830AA3F58013522B6BD82DE9F0411646EB
:104AB000794A84B0D75C0D2F60D8DFF804824C258A
:104AC000044605FB0785D5F8AC39834256D0013939
:104AD000C5F8AC0989B2C5F8B819FFF75BFB00232C
:104AE000B0FBF6F2C5F8BC39013AC5F8B439C5F8DF
:104AF000C03995F8E939C5F8B02903F0FF02002B59
:104B000040D04C23654903FB078503FB07110223B3
:104B1000D5F8AC0985F8E93904313AF039F90123BF
:104B200085F8F43985F8EA3985F8EB3985F8EC39F8
:104B300085F8ED3985F8EE3985F8EF3985F8F039E3
:104B400085F8F13985F8F23985F8F33985F8E939CE
:104B5000534B9C4219D0B4F1804F16D0A3F57C433F
:104B60009C4212D003F580639C420ED003F5806313
:104B70009C426CD003F578439C4268D004B0BDE8F9
:104B8000F081704785F8E829BBE74C234FF480514A
:104B9000002203FB0783009193F8E819039201298F
:104BA000CDE90122EAD00221D3F8AC09012483F82F
:104BB000E9193C4985682940816083F8E94983F80F
:104BC000E8294C22002302FB07820293CDE900333F
:104BD00092F8E839012BD1D0D2F8AC390221304813
:104BE00082F8E91983425A6899682CD000F58060F0
:104BF000834228D022F070022B485A602B4A9342FD
:104C000018BFB3F1804F0CBF01220022834208BFBE
:104C100042F0010200F58060834208BF42F00102C9
:104C200012B9234A934202D121F0800199604C23AA
:104C30000121002203FB078787F8E91987F8E82993
:104C400004B0BDE8F0811B4810405860ECE700213B
:104C50004FF48053CDE900314C2303FB078393F8D5
:104C6000E829012ACDE9021188D0D3F8AC09022243
:104C700083F8E9290B4A85682A4082600E4A83F846
:104C8000E8190121944283F8E9199AD00B4B9C4210
:104C90007FF474AF95E700BF48D60808642000246D
:104CA000000001408800CEFF0008004000040040E2
:104CB000001800408FFF0FFF00040140000C00406F
:104CC000B81600242DE9F04F0546086883B0860A1F
:104CD000BDF83040A6F580169DF8348001940C464E
:104CE000522E00F2A980BA4FBE5D0D2E00F2A480B4
:104CF0001946FFF7D5FE21686379B8F1000F40F03F
:104D00009E808A0A94F80780A2F58012C646522A2D
:104D100040F29F80AF4A1EF0020F26D04C2000FBCD
:104D20000620002B40F0448190F8F079012F63D1E8
:104D3000022780F8F0794C2003F01F07042300FBC2
:104D40000620BB40D0F8AC09076A27EA03070762D0
:104D5000076A3B430362436C43F4004343649E4B46
:104D600087683B40062B40D146E04C2000FB0620E4
:104D7000002B40F0F58090F8EA79012F3CD1022712
:104D800080F8EA794C2003F01F030127DFF858C2AE
:104D900000FB06209F40D0F8AC09036A23EA070312
:104DA00003628E4B604518BF98420CF5705C0CBFD7
:104DB00001230023604508BF43F00103D0F820C061
:104DC00047EA0C070762864FB84208BF43F0010369
:104DD00013B9844B984203D1436C43F400434364BA
:104DE00087687D4B3B40062B06D0B3F5803F03D050
:104DF000036843F0010303604C2303FB062292F88F
:104E0000E939012B10D1022382F8E939D2F8AC2913
:104E1000714B90680340062B06D0B3F5803F03D05A
:104E2000136843F001031360637901F13402696090
:104E30000021D0182860D15003B0BDE8F08F8A0A55
:104E400094F807E0A2F580128EF00108522A3FF68E
:104E500061AFBA5C0D2A00925E4A3FF65CAF4C2708
:104E600000984FEA480C07FB00274FEAC8080CF0EF
:104E7000020C08F0080A97F8E889B8F1010F3FF42E
:104E80004AAF4FF0010887F8E889142B60D8DFE8B3
:104E900013F0D8015F005F005F008C015F005F00CE
:104EA0005F0041015F005F005F00F8005F005F008E
:104EB0005F00AF005F005F005F0015004C270098A7
:104EC000DFF818A107FB0027D7F8AC79D7F82080C6
:104ED000574528F48018C7F82080D7F82080D7F8E5
:104EE000049028F4001848EA0C5CD7F8548028F4A1
:104EF000E04848F4C0480FD00AF5806A57450BD007
:104F0000DFF8E8B00AF5804A574518BF5F4503D07F
:104F10000AF5806A574503D129F4003949F48029FC
:104F20000198C7F80490C7F85480F865C7F820C006
:104F3000D7F854C04CF4006CC7F854C0D7F854C02C
:104F40002CF4806CC7F854C0D7F854C0C7F854C0CC
:104F50004C27009807FB0020002780F8E879DAE664
:104F6000042B00F0BE81082B00F0F3810C2B00F025
:104F7000CD81102B00F0F98190F8EF09013818BFAE
:104F8000012000287FF438AF042B00F0AF81082BFC
:104F900000F0E4810C2B00F0BE814C20102B4FF070
:104FA000020700FB062000F0E68180F8EF79E9E6D1
:104FB000042B00F0A281082B00F0C28190F8F37955
:104FC000012F7FF419AF022780F8F379B3E600BF11
:104FD00048D60808B8160024070001000000014068
:104FE00000440140004801400004014000400140ED
:104FF0004C270098DFF884A307FB0027D7F8AC798B
:10500000D7F82080574528F48038C7F82080D7F893
:105010002080D7F8049028F4003848EA0C4CD7F8E0
:10502000548028F0700848F060080FD00AF5806AB4
:1050300057450BD0DFF848B30AF5804A574518BFEB
:105040005F4503D00AF5806A574501D149F480399C
:105050000198C7F80490C7F85480B865C7F820C015
:10506000D7F854C04CF0080CC7F854C0D7F854C057
:105070002CF0040CC7F854C0D7F854C0C7F854C07B
:1050800066E74C270098DFF8F4A207FB0027D7F863
:10509000AC79D7F82080574528F48058C7F820808D
:1050A000D7F82080D7F8049028F4005848EA0C3C40
:1050B000D7F81C8028F4E64848F4C0480FD00AF519
:1050C000806A57450BD0DFF8B8B20AF5804A5745D9
:1050D00018BF5F4503D00AF5806A574501D149F4EE
:1050E00080490198C7F80490C7F81C803864C7F855
:1050F00020C0D7F81CC04CF4006CC7F81CC0D7F80F
:105100001CC02CF4806CC7F81CC0D7F81CC0C7F8B2
:105110001CC01DE74C270098DFF8609207FB0027B2
:10512000D7F8AC79D7F820804F4528F48078C7F8B5
:105130002080D7F820B0D7F804802BF4007B4BEA0E
:105140000C2BD7F81CC02CF0730C4CF0600C00F04A
:10515000F08009F580694F4500F0EB80DFF820A270
:10516000DFF820924F4518BF574503D009F58069F5
:105170004F4501D148F440580198C7F80480C7F85A
:105180001CC0F863C7F820B0D7F81CC04CF0080C5E
:10519000C7F81CC0D7F81CC02CF0040CC7F81CC002
:1051A000D7F81CC0C7F81CC0D2E600984C27DFF81F
:1051B000D89107FB00277148D7F8AC79D7F8208041
:1051C000874228F01008C7F82080D7F820B0D7F819
:1051D00004802BF0200B4BEA0C1BD7F818C00CEA0C
:1051E000090949F4C04C00F09D80DFF8A0914F45BB
:1051F00000F09880DFF888A1DFF888914F4518BF4C
:10520000574503D009F580694F4501D148F44068FE
:105210000198C7F80480C7F818C0B863C7F820B071
:10522000D7F818C04CF4006CC7F818C0D7F818C0ED
:105230002CF4806CC7F818C0D7F818C0C7F818C08D
:1052400086E600984C27DFF848B107FB00274B485B
:10525000D7F8AC79D7F82090874229F00109C7F830
:105260002090D7F8209029F002094CEA090CD7F8D1
:105270000490D7F8188008EA0B0B4BF0600B0FD0A6
:10528000DFF8088147450BD008F5804800F58040DD
:10529000474518BF874203D008F58068474507D1C6
:1052A0002CF0080C49F440794AEA0C0C2CF0040C60
:1052B0000198C7F80490C7F818B07863C7F820C001
:1052C000D7F818C04CF0080CC7F818C0D7F818C0A9
:1052D0002CF0040CC7F818C0D7F818C0C7F818C0CD
:1052E00036E690F8EB0901287FF486AD4C200227C2
:1052F00000FB062080F8EB7944E590F8F179012F66
:105300007FF47AAD022780F8F17914E590F8ED0981
:1053100001287FF471AD4C20022700FB062080F8A5
:10532000ED792FE52BF0800B4BEA0A1B2BF0400B9D
:105330006CE72BF4006B4BEA0A2B2BF4806B19E71C
:1053400090F8F279012F7FF457AD022780F8F279B7
:10535000F1E490F8EC0901287FF44EAD4C200227CF
:1053600000FB062080F8EC790CE590F8EE09013896
:1053700018BF012005E680F8EE7903E50000014042
:105380000040014000440140FF8CFFFE000401404A
:105390008CFFFEFF70B504460068830AA3F58013F6
:1053A000522B03D82B4DEE5C0D2E00D970BDFFF7AC
:1053B00077FB294B4C2202FB063696F8E939012B84
:1053C00013D021680023254A254801E050F83320F6
:1053D00091421CD00133112BF8D10121002040F063
:1053E00017FF204B01221A6070BD0223D6F8AC29AA
:1053F00086F8E9391C4B91680B40062BE1D0B3F5D8
:10540000803FDED0136843F001031360D9E705EB5A
:10541000C3030121134D93F8664E204640F0F8FE79
:1054200004F01F03012162091B2C01FA03F345F864
:10543000223006D1192040F0EBFE4FF000732B60B4
:1054400070BD2E2CB2D12C2040F0E2FE4FF48053E0
:105450006B6070BD48D60808B816002400000140F3
:10546000A8E4080800E100E0070001002DE9F0438E
:10547000BDB0BFF35F8FA24A0020516A03460446C5
:1054800021F4803151620146C2F89400C2F898308C
:105490000133C2F89C10112BC2F8A010F6D10523DD
:1054A000C2F89430536A43F480335362BFF34F8F92
:1054B000BFF36F8F9348944A9449121A47F02EFF16
:1054C0009348944A9449121A47F028FF934AD368A4
:1054D000042B00F0FC8005D8012B00F07E83022B0A
:1054E00000F07483864A00238D4C0120D2F8881086
:1054F0008C4E41F470018C4DC2F8881020602361FD
:10550000216841F080012160216801432160216808
:1055100041F480312160216841F480512160A36110
:10552000E3612362A362E36223636363A363E363D0
:1055300023646364216821F4802121607B49236610
:10554000C1F808014FF000614FF6FF00784B916001
:10555000D16801400B43D36039F07AF9A369024660
:105560000F20C3F30323A169334493F8A83203F057
:105570001F0322FA03F32B6035F064F86D4AD368F9
:1055800013F0040FD36840F0A4806B4B0021694AEC
:105590000391D96A21F00101D962DB6A03F00103AA
:1055A0000393936943F440439361936903F4404345
:1055B0000393039B93699B04FCD54C2200210DA807
:1055C0005E4C47F0D3FE5E4A42F203031268B3EB2F
:1055D000124F4FF00003079304F1140318BF1C4649
:1055E000E268002A4FD0544B5249D86A20F001009B
:1055F000D862DB6A03F0010307938B6923F440430D
:1056000013438B618B6903F440430793079B494A1B
:1056100093699F04FCD5424B4FF4403149484FF009
:105620000108D3F8E020002742F08002C3F8E02010
:10563000D3F8E03003F080030693069B03238161D7
:1056400008A908930B93CDE9098738F047FC02239A
:105650000DA8CDF834801E97CDE91633A3781893A2
:10566000A3881993A3791A93E3791B93237A1C9344
:1056700023691D934FF480330E9338F02BFE0328DB
:105680003BD098B1FEE72B4A2B4B916941F4404146
:105690009161926902F440420792DA6A42F0010293
:1056A000DA62DB6A03F001030793AFE7264B1A685F
:1056B00012F00E0F4CD11A6822F00F0242F00202D3
:1056C0001A601B6803F00F03022B41D0FEE7D46081
:1056D00008E723F007031D4C43F00203D360D4F81E
:1056E000481E06E0D4F8483E5B1AB3F57A7F3FF6D1
:1056F0004CAF53689804F5D547E772B6FEF70EFA3B
:1057000000ED00E000000000703600003CCA09080F
:10571000000000200400002061200A0850400058CA
:105720000044025848D608080000002400800051B8
:105730000003FA050048025800040058AC03002496
:105740000010005C001C025800200052B816002413
:105750006E4A936903F070033F2B05D8936923F0D9
:10576000700343F040039361684AD36903F0700308
:105770003F2B05D8D36923F0700343F04003D36176
:10578000624AD36903F4E063B3F5806F05D2D3694D
:1057900023F4E06343F48063D3615C4A136A03F04B
:1057A00070033F2B05D8136A23F0700343F04003C6
:1057B0001362564B9A69140705D49A6922F00F02B6
:1057C00042F008029A61514A936923F4706393612D
:1057D000136898017FF57AAF136941F288304C4C19
:1057E00023F0070343F003031361D4F8481E05E0D8
:1057F000D4F8483E5B1A834200F2A081136903F09B
:105800003803182BF4D1936903F00F03082B05D943
:10581000936923F00F0343F0080393613D4A136833
:1058200003F00F03022B0BD9136823F00F0343F08F
:1058300002031360136803F00F03022B7FF446AFDB
